:1000000000000420B1C70400D9C70400DBC7040006
:10001000DDC70400DFC70400E1C7040000000000E2
:10002000000000000000000000000000E3C7040022
:10003000E5C7040000000000E7C70400E9C70400AA
:10004000D9C60400BDB00400456D0000EBC7040034
:10005000EBC70400EBC70400EBC70400EBC70400C8
:10006000EBC70400EBC70400EBC70400EBC70400B8
:10007000EBC7040099690000EBC70400EBC704005C
:10008000EBC70400EBC70400EBC70400EBC7040098
:10009000EBC70400EBC70400EBC70400EBC7040088
:1000A000EBC70400EBC70400EBC70400EBC7040078
:1000B000EBC70400EBC704000000000000000000D4
:1000C000EBC70400EBC70400EBC70400EBC7040058
:1000D000615D0000EBC70400EBC70400EBC7040040
:1000E000EBC70400EBC70400EBC7040000000000EE
:1000F00000000000EBC7040000000000EBC7040094
:1001000000000000000000000000000000000000EF
:1001100000000000000000000000000000000000DF
:1001200000000000000000000000000000000000CF
:1001300000000000000000000000000000000000BF
:1001400000000000000000000000000000000000AF
:10015000000000000000000000000000000000009F
:10016000000000000000000000000000000000008F
:10017000000000000000000000000000000000007F
:10018000000000000000000000000000000000006F
:10019000000000000000000000000000000000005F
:1001A000000000000000000000000000000000004F
:1001B000000000000000000000000000000000003F
:1001C000000000000000000000000000000000002F
:1001D000000000000000000000000000000000001F
:1001E000000000000000000000000000000000000F
:1001F00000000000000000000000000000000000FF
:1002000010B5054C237833B9044B13B10448AFF350
:1002100000800123237010BD0004002000000000B6
:10022000A8F9070008B5034B1BB103490348AFF316
:10023000008008BD0000000004040020A8F90700A9
:10024000A3F5803A704700BF174B002B08BF134B34
:100250009D46FFF7F5FF00218B460F461348144AD1
:10026000121A6CF0A1F80E4B002B00D098470D4BE2
:10027000002B00D098470020002104000D000D48FD
:10028000002802D00C48AFF300806CF013F8200077
:10029000290000F05FFB6AF04FFC00BF000008007F
:1002A0000000000000000000000004200004002006
:1002B000B44301200000000000000000C36823F0E8
:1002C0004A0343F00803C360704770B5856804466D
:1002D0004DB1284650F8046B60F0E5F828464CF024
:1002E0008CFB3546F4E762682068920029466CF082
:1002F0005BF82346C4E9025553F8180B984201D025
:100300004CF07BFB204670BD8268002322B1117F38
:1003100012680B44DBB2F9E7C068B3FBF0F070473A
:100320002DE9F041B4B0054668460C465FF064FE26
:10033000114F04F110080226444512D0394602A894
:100340005FF07CFA026852F80C2C034613444FF01D
:1003500030019E605FF0DDFA14F8011B5FF094FB42
:10036000EAE703A928465FF02DFC68465FF0E4FE4B
:10037000284634B0BDE8F081BD0200002DE9F0410F
:1003800086B01D460C9B0093C36804460E469046FB
:1003900000F11001426804A859F05CF89DF8103093
:1003A000002B46D0059F012F1FD12646002346F87B
:1003B000183FA4460020A3684CF8080F63B31A6ADC
:1003C000B2FBF7F107FB1121D3F800E056F821202A
:1003D000DAB9A2681A60A36046F821C01A680AB1A7
:1003E00046F8203008467346E8E7B7F1005F01D3CE
:1003F00058F0D5FFBA00104603924CF035FB039A33
:10040000002106466BF0D0FFD3E712681A6056F859
:10041000212001461360E5E7234653F8180B984264
:1004200001D04CF0EAFAC4E90067B8FBF7F607FB25
:1004300016862368C5F8208053F82620B7005AB1E5
:1004400012682A6053F826301D60E368284601339D
:10045000E36006B0BDE8F081A2682A60A5602A6862
:100460003AB1106A6168B0FBF1F201FB120243F885
:10047000225004F10802DA51E7E72DE9F0479A46E5
:10048000036853F8214080460F469146E4B1256841
:100490002B6A9A450BD1D9F80420AB689A4206D151
:1004A00092B16968D9F800006DF0F2FD60B12E6874
:1004B0007EB1316AD8F80430B1FBF3F203FB1212BB
:1004C00097422C4603D000242046BDE8F0873546ED
:1004D000DEE73446F8E700002DE9F7430646174A01
:1004E0000D46D1E900014CF08BFA7368B0FBF3F8CC
:1004F00003FB1808044603462A4641463046FFF7E8
:10050000BCFF08B10068A0B924204CF0ADFA4FF050
:1005100000090746294640F8049B60F057F801237C
:10052000009322463B464146304687F81C90FFF731
:1005300025FF1C3003B0BDE8F08300BF07690FC77B
:1005400010B58EB06C4684E80F0004AA0023114653
:10055000013314F8010B02F8010B102BF8D108A895
:10056000FFF7DEFE08A90748FFF7B6FF9DF8403009
:10057000037008A85FF097FF0248FFF7C5FE0EB0B2
:1005800010BD00BF1C04002010B50E4C20464CF0DE
:10059000B5FA0D4A0D4920464CF02AFA0C4800F1F4
:1005A000180301224FF07E5103600023C0E90123AC
:1005B0000161BDE81040C0E90533034A0549C36045
:1005C0004CF016BA380400200000002055CD04007D
:1005D0001C040020CB020000094B1A8872B9094A9A
:1005E0001188094A1288C2F500608142C8BF81B2F1
:1005F000198019B10548104406F022BC704700BFAD
:100600003C060020400E00203E0E00203E0600204A
:100610000749084A0B8810880344C3F30A030B8078
:1006200005490B881B1A0B8000231380FFF7D4BFEA
:100630003E0E00203C060020400E00202DE9F04731
:10064000194FDFF86C9006460D464FF0000AB84689
:100650003C88B9F800001549C4F50064A4B2AC4266
:1006600028BF2C4606EB040C66450CD0B8F80030C9
:1006700016F801EBC218C2F30A02013301F802E0D6
:10068000A8F80030F0E72D1BADB25444FFF7A4FFEB
:100690001FFA84FA2DB106F0C3FB10B9FFF7B8FFBB
:1006A000D6E75046BDE8F087400E00203E06002009
:1006B0003E0E00202DE9F743354D2E880F46134698
:1006C000A846CEB90A4633484FF400616DF0D2FC1B
:1006D000B0F5006F044607D32F48394606F0F6FD03
:1006E000204603B0BDE8F0832C4B28801E802C4BA5
:1006F0001E80FFF771FFF3E7284A2648158801930B
:100700002E44C6F30A06B5428CBFAD1BC6F5006584
:10071000ADB2914630440A4629466DF0ABFC041E4A
:1007200004DA1D48394606F0D1FDE2E7A54205DDB1
:10073000B8F800302344A8F80030DAE7B4F5006FC9
:1007400022DAB8F800306BB1FFF746FF06F068FB1D
:1007500010B9FFF75DFFF4E706F07BFC0146114896
:1007600006F0B4FD019B0B483A464FF400616DF072
:1007700081FC041E00DCFEE7094AA8F800400023C3
:10078000A9F800301380B4E707483946CBE700BF2B
:10079000400E00203E060020B03107003E0E002033
:1007A0003C060020D1310700EA310700F8B52A4F96
:1007B0002A4C05464618AE424CD92B780D2B26D034
:1007C00011D8082B11D00A2B1DD02388B3F5FF7F39
:1007D00030D801212846FFF731FF23885A1C228098
:1007E00029781F4A0DE07F2BEFD1238813B3032113
:1007F0001C48FFF723FF2388194A013B9BB2238043
:100800000021D15416E0184B1B780D2B12D0022179
:100810003846FFF713FF238811490022581ECA5497
:10082000944601445BB902B123800D4801F09CFC61
:10083000002323800C4B15F8012B1A70BBE70878B6
:100840000A2801D00D28EED1013B01F801C99BB265
:100850000122E7E7F8BD00BF073207003A06002093
:100860003A0400200432070039040020FFF7D0BE0C
:1008700007B50A49019000230B8009490B800949FB
:100880000B8009490B8006F0CBF9019A0749104605
:1008900003B05DF804EB01F065BC00BF3A06002030
:1008A0003E0E0020400E00203C060020B506000051
:1008B000F0B5E5B004A9054606F0BCFB24A904A8E0
:1008C00006F08BFB8022002104A86BF06DFD012354
:1008D000114A8DF88C308DF88B30104B1A926A4685
:1008E000164603F1100718685968344603C40833E4
:1008F000BB422646F7D10FCA0CAC84E80F00012397
:1009000024A904A88DF8863006F07BFB24A928468C
:1009100006F01FFB65B0F0BDCDAB1A003232070008
:1009200030B5084689B014460D4606F0DAFC03AA35
:1009300001461323284606F0D8FC9DF80C3000939E
:1009400020696169A269E369FFF7FAFD09B030BD6A
:10095000704700002DE9F04F99B04B4E019088464A
:100960004FF0000941460198DFF834A105F00AFF75
:1009700006F071FB0446FFF77BFF2046FFF798FF68
:100980000121204606F082FB3422002130466BF024
:100990000BFD102200210EA86BF006FD40F2BC43B7
:1009A0003A4AADF8483031462346204607F022F84F
:1009B00001230EAA3146204607F035F801212046D2
:1009C00006F09AFE0025AB4605F006FF07462046D6
:1009D00017B106F04AFBC5E706F004FD204605F016
:1009E00001FFBB4508BF55454AD1262202AD394615
:1009F0000EA86BF0D9FC2946254806F09BFB95E82C
:100A00000F000DF1480C8CE80F0040F2BC43394652
:100A10002046ADF85A3006F0DFFF0546E0B11D4F25
:100A20003B78052B1BD11C4B06AA03F1200B9646E5
:100A3000186859689446ACE8030008335B45624681
:100A4000F6D120227146284606F04DFC87F800902A
:100A500050B1284606F03FFC0025AB46B4E70F49ED
:100A6000152206F040FCF3E70EAB2A46314620463D
:100A700006F0E3FF3B7801333B700028E9D1EBE758
:100A800001354BF1000B9FE7440E002021090000C7
:100A90002A320700420E002009320700040000201D
:100AA0008038010008B5034A0349083004F02DFDE1
:100AB000002008BD423207001B35070010B50C6846
:100AC00024B9806806F0D3FA204610BD2320FCE745
:100AD000803002F08FBA00002DE9FF410D68044616
:100AE0000E4685B908306549039004F00EFD64494F
:100AF000039804F00AFD6349039804F006FD2846B4
:100B000004B0BDE8F0815E49304623F0A1F9002829
:100B100043D07368002B32D154F8080F5A4EDFF8D7
:100B20008C8106F0AFFB594902680546204604F067
:100B3000ECFC10273368EB5800937368424604219D
:100B4000204604F0FFFC013F06F10806F2D16A6C72
:100B50004F49504EDFF85481204604F0D6FC102750
:100B60003368EB580093736842460421204604F032
:100B7000E9FC013F06F10806F2D10025BFE746492E
:100B8000301D23F065F908B90725B8E7B568002DD1
:100B9000FAD1A06806F07AFBB1E73A49304623F073
:100BA00057F900283FD0736883BB54F8080F3B4DBA
:100BB000DFF8FC8006F0D6FD092706462B686A6838
:100BC000F35A4146204604F0A0FC013F05F1080518
:100BD000F4D1334FDFF8DC8005257A6841462046A2
:100BE00004F0D4FB57F8083B3344D3E900232046F4
:100BF00004F018FC013DF0D120462A4904F0C6FB60
:100C0000D6E90E23204604F00DFC78E72249301D7A
:100C100023F01EF90028B7D0B568002DB4D1A06824
:100C200006F0ABFD6BE71549304623F011F90028BB
:100C3000AAD07368A3B954F8080F1B4DDFF86C8075
:100C400006F085FD042607462B686A68FB58414676
:100C5000204604F05AFC013E05F10805F4D18CE76A
:100C60000D49301D23F0F4F800288DD0B568002D13
:100C70008AD1A06806F06FFD41E700BFAB370700DF
:100C80004B3207004F3207009044070053320700F1
:100C9000683207001044070083580700A843070084
:100CA000104507008C320700F04307006032070050
:100CB000753207007C32070008B5806806F0DFF95E
:100CC000002008BD2DE9F0430E468BB0454905468E
:100CD000304623F0BDF8074600B1043633685BBBED
:100CE000A868414EDFF81881DFF8189106F0DEF9A8
:100CF0000446002C58D005F108002146039004F06A
:100D00009BFB0398A7B1637CA17C0390032BC1F3E9
:100D1000400198BF59F82320237C0191A17C01F068
:100D20000101009188BF4246314604F02FFB039831
:100D300004F03AFB6469DCE72C49304623F088F87C
:100D400098B1706804A923F058F858B9089BA868AE
:100D50009B0C9B0443F4403343F4507304A9089361
:100D600006F0ADF90BB0BDE8F0832149304623F021
:100D70006FF8044650B1706804A923F03EF80028CB
:100D8000F0D1A86804A906F09FF9EBE719493046AD
:100D900023F05EF8074648B155F8080F06F01EFC30
:100DA0000146284604F05AFB2046DBE7124930464C
:100DB00023F04EF8044648B155F8080F06F006FC3B
:100DC0000146284604F04AFB3846CBE70B4930463B
:100DD00023F03EF820B155F8080F06F0FBFBDFE7E3
:100DE0002320BFE7A1320700A4320700CD3207005D
:100DF0006D370700D1320700DB320700E032070011
:100E0000725A0700C041070030B585B0044602A9F8
:100E1000806806F048FC0546F0B904F10800029A23
:100E20000F49019004F071FB9DF80C200D490198C9
:100E300004F06BFB9DF80D200B49019804F065FB55
:100E40009DF80E200949019804F05FFB9DF80F20E2
:100E50000749019804F059FB284605B030BD00BF92
:100E6000E6320700F83207000D33070006330700AB
:100E70001E33070070B50C6886B005460E4664B98F
:100E800055F8080F02A906F064FD2846102202A9B1
:100E900004F0ACFA204606B070BD4B685BB9102276
:100EA00002A9204622F0B3FF0028F4D1A86802A9C5
:100EB00006F054FDEFE70B49304622F0C9FF70B150
:100EC000A868746806F096FB0190A86806F023FBFA
:100ED0000199024602AB204606F05EF8E4E70720DF
:100EE000D9E700BF33330700383002F0F9BF00F50F
:100EF000EA50103003F06CB870B5044680680E46B6
:100F000010F0FCFC054606F0BDF885420CD00849FF
:100F1000304622F09DFF48B104F1080005492A46F9
:100F200004F0F3FA002070BD0C20FCE70720FAE77C
:100F3000733707001B35070010B5044654F8080F37
:100F400006F0CCFB03490246204604F0DEFA0020FE
:100F500010BD00BFCE350700024B034A083004F035
:100F6000BBBB00BFD3770000C97700007FB50C463C
:100F700000232349ADF80E300546204622F068FFD5
:100F8000064610B1606800BB0434206838B30DF128
:100F90000D0122F0DBFE00BB9DF80D001F281BD8C1
:100FA0000124844005F10800DEB1164B164A0221E7
:100FB00004F002FB154BBDF80E20A86800952146F1
:100FC00006F070F948B9242007E00DF10E0122F077
:100FD000CEFE10B90834D8E7072004B070BD04462F
:100FE000E0E70B4B0B4A052104F0E6FA0A4BBDF88B
:100FF0000E20A8680095214606F04FF9E2E700BFF1
:10100000363307006142070054420700591F0000B1
:101010005C420700404207006122000010B500F169
:101020000804806806F07AFB044A0549002818BFC6
:101030001146204604F069FA002010BD3D33070038
:1010400042330700303002F075BC883003F0B0BB8B
:10105000403004F0C9B8096800686BF0BABA000003
:1010600038B50C68054608464CB906F00BF8094936
:10107000024605F1080004F048FA002038BD064990
:1010800022F0E6FE18B105494FF4C972F1E72320BA
:10109000F4E700BF1B35070048330700424507004F
:1010A00038B50C4605460949204622F0D1FE58B114
:1010B00064684CB906F008F90549024605F10800D4
:1010C00004F023FA204638BD0720FCE74C33070024
:1010D000B064070013B50C687CB90830084901906A
:1010E00004F054F90749019804F050F901980649B1
:1010F00004F00BFA204602B010BD2320FBE700BF2E
:101100005233070054330700D6F007002DE9F041B1
:101110000B68044694B008467BBB54F8080F1C4E7D
:10112000DFF8808002AF394606F0E7F8BDF8082006
:101130001849204604F0E9F9BDF80A20164920466E
:1011400004F0E3F9BDF80C201449204604F0DDF961
:1011500008253368FA182046516801915288009298
:10116000FB5A7268414604F0D0F9013D06F10806C9
:10117000EFD1002014B0BDE8F081094922F068FEEB
:1011800018B1A06806F0BBF8F3E70720F2E700BF4C
:101190000042070059330700633307006C33070030
:1011A000835807007933070037B5054608680DF105
:1011B000070170B9A86804F0CBFF044630B99DF967
:1011C00007200A4905F1080004F09FF9204603B002
:1011D00030BD22F003FE04460028F7D19DF9071028
:1011E000A86804F0C9FF0446F0E700BF9633070083
:1011F00037B50C68054674B955F8080F05F020FF9F
:101200000E494FF47A72B0FBF2F2284604F07DF9F1
:10121000204603B030BD4B686BB901A9204622F0CF
:1012200044FE0028F5D1019BA8684FF47A71594318
:1012300005F00AFFEDE70720EBE700BFF4320700F7
:1012400010B5044608460A4922F002FE30B10022D9
:10125000A0681146BDE8104006F094BA0549A068A0
:10126000224606F08FFA002808BF242010BD00BFD8
:1012700087330700311F00000B6837B505460C4661
:1012800083B980680DF1070104F08EFF044630B980
:101290009DF90720144905F1080004F036F92046AD
:1012A00003B030BD1149204622F0D2FDC8B16068BC
:1012B0000DF1070148B9A86804F076FF044600283C
:1012C000EDD19DF907200A49E5E722F087FD0446A4
:1012D0000028E4D19DF90710A86804F06FFF0446C8
:1012E000DDE70724DBE700BF8D3307009D330700F0
:1012F000B064070070B50E6804460D468EB954F808
:10130000080F05F0CFFE054628B120460F4904F02E
:10131000FCF8304670BD20460D4904F0F6F828462A
:10132000F8E70A49284622F093FD064628B1012134
:10133000A068BDE8704005F0A9BE0549284622F026
:1013400087FD08B13146F3E70720E3E7A53307003F
:1013500074F2070038B50D685DB9044654F8080FFB
:1013600005F07BFE04490246204604F0CEF82846EC
:1013700038BD0720FCE700BFF4320700F0B50B686A
:1013800085B005460E4663B955F8080F05F0A1FE75
:101390000446002C50D02146284604F05FF824690A
:1013A000F7E72749304622F053FD50B1706869468F
:1013B00022F023FD18B9A868694605F08EFE05B035
:1013C000F0BD2049304622F043FD50B170686946B7
:1013D00022F013FD0028F2D1A868694605F082FECC
:1013E000EDE71949304622F033FD074638B1174B77
:1013F000174A311D05F1080004F05CF9DFE71549D3
:10140000304622F025FD044648B155F8080F06F095
:10141000E9F80146284604F021F83846CFE70E499E
:10142000304622F015FD48B155F8080F06F0DEF8F9
:101430000146284604F012F82046C0E72320BEE704
:10144000CD3207006D370700A8330700F7700000A2
:10145000EF700000B4330700BA33070038B50D68E9
:101460005DB9044654F8080F06F030F90449024605
:10147000204604F04AF8284638BD2320FCE700BF88
:10148000F43207000B6837B50546084683B9A868EB
:1014900005F1080405F0D4FE10B1A86804F0F2FDCF
:1014A0000146204604F042F80024204603B030BD37
:1014B0000DF1070104F0C0F804460028F5D19DF8AD
:1014C00007201AB9A868114605F0B3FE9DF8071069
:1014D000A86805F0BBFE04460028E6D19DF8073059
:1014E000002BE2D00249A8682A4605F0A2FEDCE7FC
:1014F0007D1E00000B6837B505460C469BB9806819
:101500000DF1060105F0D8FE044648B9BDF80620E5
:101510009DF806300D49120A05F1080003F0F5FFA9
:10152000204603B030BD084622F08BFC02280AD1C9
:101530002368A8681A78597801EB022189B205F06E
:10154000B6FE0446ECE70724EAE700BFC033070015
:1015500070B50E6804460D4666B954F8080F06F0DB
:101560009CF806F09EF818490246204603F0CDFF8D
:10157000304670BD1549284622F06AFC20B1A068AB
:10158000BDE8704006F07AB81149284622F060FCA8
:1015900020B1A068BDE8704006F075B80D49284636
:1015A00022F056FC20B1A068BDE8704006F058B9A2
:1015B0000949284622F04CFC20B1A068BDE87040E3
:1015C00006F05FB90720D4E71B350700C5330700D5
:1015D000CE330700D4330700DB330700F8B50E46DF
:1015E00005461249304622F033FC074628B1012156
:1015F000A868BDE8F84006F07FB80D49304622F0F3
:1016000027FC044608B13946F2E70A49304622F081
:101610001FFC48B106F080F80749024605F10800B2
:1016200003F073FF2046F8BD2320FCE75D6207004E
:10163000E2330700733707004245070037B5054618
:1016400008680DF1070170B9A86804F077FD044639
:1016500030B99DF907200A4905F1080003F055FF4C
:10166000204603B030BD22F0B9FB04460028F7D174
:101670009DF90710A86805F03FF80446F0E700BFA1
:101680009633070030B50D68044687B008466DB93B
:1016900054F8080F1822694605F0EEFC0B496A461B
:1016A000204603F032FF002007B030BD084922F089
:1016B000CFFB48B154F8080F05F0DBFC02460B469F
:1016C000204603F0AFFEEEE70720EDE71B350700ED
:1016D000A949070010B50446006888470349024637
:1016E000204603F012FF002010BD00BF4245070056
:1016F0002DE9F0430D6895B004460E468DBB806819
:10170000DFF8908006F052F8A9460646AFB2BE4216
:1017100036D9A068ADF80E9008AA394606F0CBF885
:10172000E8B99DF84930C3F3C0021B0717D4ADF8E0
:101730000E20A06804AB0DF10E02394606F0C0F889
:1017400068B904F1080341461846BDF838200193F2
:1017500003F01CFE019804A903F080FEE9E70135BF
:10176000D4E70A49304622F073FB58B173685BB97D
:10177000074904F10800FFF7ADFF15B0BDE8F0839D
:101780000020FAE72320F8E70720F6E7B337070041
:10179000BF770000E73307002DE9F7430D680446E3
:1017A000002D38D100F10806284B294A294FDFF8CF
:1017B000AC80DFF8B0900321304603F0FDFEA06856
:1017C000E9B206F0F4F8F0B1A90201ABA0680DF19E
:1017D000060201F47C4106F0F0F839462A4630460C
:1017E00003F0D4FDBDF806204FF6FE739A421BBFEE
:1017F0009DF804301849194A920A04BF43464946E5
:10180000304603F082FE01353F2DD8D10025284611
:1018100003B0BDE8F083284601A922F0A8FA0546E6
:101820000028F4D154F8080FBDF804100DF103039B
:101830000DF1060206F0C1F89DF80330BDF8062050
:101840000749204603F061FEE1E700BF7042070050
:1018500064420700EE330700F73307001BA30700BD
:101860000F3407000334070073B50C6805460E46B5
:101870003CB10DF10701204622F0B0FA60B102B090
:1018800070BD55F8080F06F082F808490246284650
:1018900003F03BFE2046F2E773682BB99DF9071071
:1018A000A86806F078F8EAE70720E8E7B0640700E0
:1018B00037B50D686DB90446694654F8080F05F050
:1018C0007BFC20460822694603F090FD284603B0C1
:1018D00030BD0720FBE737B50C6805465CB955F805
:1018E000080F05F018FE08220146284603F07EFD89
:1018F000204603B030BD08226946204622F087FA10
:101900000028F6D1A868694605F009FEF1E7000055
:10191000F0B5044600F10805134B144A144F154E58
:101920008DB00221284603F047FEA06806F096F825
:101930000446B4B120463022694605F002FC6A46EE
:101940003946284603F022FD04F112003022694690
:1019500005F0F7FB6A463146284603F0D6FD246BB6
:10196000E7E720460DB0F0BD7C4207007442070057
:101970001E3407002734070037B50C6805465CB9EC
:1019800055F8080F05F000FC08220146284603F030
:101990002DFD204603B030BD08226946204622F0C6
:1019A00036FA0028F6D1A868694605F0F1FBF1E7A0
:1019B00030B50C6885B0054664B955F8080F69461E
:1019C00005F0E6FD28461022694603F00FFD20468B
:1019D00005B030BD10226946204622F018FA0028D2
:1019E000F6D1A868694605F0D8FDF1E730B50B6877
:1019F000044687B0084683BBA06801A905F072FEC3
:101A0000054638BB08341A49204603F0BFFC0822BB
:101A100001A9204603F0EAFCBDF80C201549204638
:101A200003F073FD9DF811201349204603F06DFD6E
:101A30009DF812201149204603F067FD9DF8132000
:101A40000F49204603F061FD9DF815200D49204601
:101A500003F05BFD284607B030BD0B4922F0F8F9D2
:101A600020B1A06805F043FE0546F3E70725F1E73E
:101A7000313407003C34070045340700593407006F
:101A80006E340700123307007734070073B50C6813
:101A900005460E4634B101A9204622F006FA60B18F
:101AA00002B070BD55F8080F05F0A9FB07490246C2
:101AB000284603F02AFD2046F2E7736823B901990E
:101AC000A86805F0A1FBEBE70720E9E7F43207007F
:101AD00030B50C4687B005462149204622F0B8F9BA
:101AE000A0B1201D0DF1170103F0A6FD044638B981
:101AF0009DF817303BB11B492A46A86805F050FFF6
:101B0000204607B030BD02460146F6E7206820B304
:101B10000DF1170122F01AF904460028F0D19DF8C2
:101B200017001F2817D8012181400F4B0193002374
:101B3000A868029500934FF6FF7205F0F4FD044685
:101B40000028DDD1094B0A4A072105F1080003F0FE
:101B500033FD2424D4E70724D2E70146E5E700BF9C
:101B60007E340700BD2100006122000034430700DD
:101B700018430700024B186800B9FEE7704700BF22
:101B8000780E0020037813F0010F0B461CBF722261
:101B900003F8012B0278920744BF642203F8012B5B
:101BA0000278520744BF6E2203F8012B8B4204BF18
:101BB0002D2203F8012B00221A70084670470000FE
:101BC0007FB50C68002305460E468DF804308CB9AD
:101BD00055F8080F05F0BCFC03A98DF8080002A811
:101BE000FFF7D0FF1E490246284603F08EFC204630
:101BF00004B070BD1B49304622F02AF938BB336867
:101C00000146013B044613F8012F5AB16E2A05D054
:101C1000722A05D0642A20D10124F4E70121F2E7D9
:101C20000120F0E728B19DF8043043F001038DF85E
:101C300004302CB19DF8043043F002038DF80430D9
:101C400029B19DF8043043F004038DF804309DF869
:101C50000410A86805F08BFCCAE70720C8E700BF9E
:101C60001B3507001BA30700F0B50446A1B00D46C5
:101C70000026227DF3B29A421BD92269284652F8E7
:101C80003310DF0022F0E4F801360028F1D0694675
:101C9000284622F0E6F82369A4693B4428465E689A
:101CA00022F0EAF80138C1B201AA2046B04721B0BB
:101CB000F0BD2320FBE770B5064600680C4608B966
:101CC000072070BD2F216AF077FB054688B104F12B
:101CD0000801013022F03AF80028F2D1227A013AC4
:101CE0003F2AEDD8287030682146BDE8704021F0C9
:101CF000D1BF1720E5E70000013002289ABF024B50
:101D000053F8200001487047283E0700F59C070063
:101D10002DE9F341804608680F4616461D46C0B1BE
:101D2000114622F06AF800232B70044668B1386827
:101D300001A922F067F840B9324601A9404605F0F2
:101D4000E6FA044608B901232B70204602B0BDE82C
:101D5000F0810724F9E7000038B50C4600F10805CA
:101D6000284603F069FB228A1D49284603F00EFB32
:101D7000A37C1C49032B96BF1B4A1C4A52F8232004
:101D8000284603F003FBE27C194902F001022846D1
:101D900003F0FCFAA37CE3B9E37C5B0714D5154997
:101DA0006269284603F0F2FA04F11801284603F0AC
:101DB00043FBA37C032B07D1E37C628D0E49C3F365
:101DC0004003284603F0E2FA2846BDE8384003F015
:101DD000EBBA228D0949284603F0D8FAE9E700BF9B
:101DE000CD3507001A350700B0410700725A0700C9
:101DF00093340700A0340700C0340700B434070050
:101E000010B500238EB0CDE901330446A06801AAC5
:101E100003A905F099FD20B903A92046FFF79CFF0F
:101E2000F4E700200EB010BD30B597B00B680093FA
:101E30008B88ADF804300E490E4B0F4D00F10804AD
:101E4000002A14BF1A460A46204600230292ADF823
:101E5000563003F0A9FA684605F03BFA28B903AA00
:101E60002946204603F051FBF5E717B030BD00BF0F
:101E7000DE340700DB3407001B35070013460A4633
:101E800001461846FFF7D0BF024A0349083003F065
:101E90007DBA00BF343E07001B350700437F37B5CE
:101EA000044673B181B30846019105F0D2F8019A56
:101EB0001649034604F1080003B0BDE8304003F0C2
:101EC00024BB037F03B9FEE724291DD000F10805D8
:101ED00079B90F49284603F018FB002304F12000CC
:101EE000237706F033FF204603B0BDE83040FFF70C
:101EF000CBBF0846019105F0ACF8019A03490346AF
:101F0000284603F002FBE8E703B030BDE1340700E8
:101F1000EE34070010B505490446083003F0F5FA21
:101F200020460021BDE81040FFF7B8BFF33407009A
:101F3000FFF7F0BF10B419B95DF8044BFFF7AEBF5F
:101F400091F901300A785DF8044B0249083003F03A
:101F5000DCBA00BF063507000B4601461846FFF7FE
:101F6000E9BF000070B504460D4611461A4603F05D
:101F7000B9F923460026164AA683C4E9025443F859
:101F8000202F2946C4E90A342246C4E90C5404F13E
:101F9000380001F081FD2246294604F1400003F09B
:101FA0004FF822462946C4E9205404F1880002F083
:101FB000E1FB04F5EA5022462946103001F0D6FF35
:101FC000204626616661A661FFF75EFF204670BD70
:101FD000FB1F000010B5054C13460A46014620467B
:101FE000FFF7C0FF024B1C6010BD00BF800E002039
:101FF000780E00200021FFF751BFC068FFF7FABF3D
:102000002DE9FF410B680393234B00930C230546F6
:102010000E464A2221490DEB030005F0ECFD044673
:1020200078B182686368511005EB6200D20748BF3F
:102030006A5806F1040148BFD358984704B0BDE878
:10204000F0811749304621F003FFE8B1DFF84C80FA
:10205000144F05F1080654F80820394630460C3470
:1020600003F053FAB4F55E7FF5D10E4F00242A7DBC
:10207000E3B29A420DD92A69394652F833203046E4
:1020800003F043FA0134F2E731462846FFF7ECFD4E
:10209000D4E70020D2E700BF57100000383E070009
:1020A000143507001B35070030B50446A3B00D46B4
:1020B00001B9FEE7437F5BB1202201A9284621F048
:1020C00097FDA0B101462046FFF7E8FE23B030BDE2
:1020D000037F002BFAD1012303774FF4C071284608
:1020E00006F0A8FCB0F5C07FE6D30620EAE7019B26
:1020F00023B923772046FFF7C7FEE7E701A920466B
:10210000FFF77EFF0028DDD1019B002BDAD1237F72
:10211000002BEFD0DAE70000F0B501230F4E104F8F
:10212000437789B00446142556F8041B1D226846DF
:102130006AF0A4FE00236A46394604F108008DF8CF
:102140001D3003F0E2F969462046FFF7ADFF013D7F
:10215000EAD12846657709B0F0BD00BFC842070044
:1021600019350700FFF736BF07B50190FFF702FDED
:10217000019903B05DF804EBFFF796BF082203F066
:1021800023B9000013B50C4608300A49019003F04A
:10219000FDF801982146FFF7F1FF227A06490198E0
:1021A000C2F3001302F00F0202B0BDE8104003F0CA
:1021B000ACB900BF1E350700383507000B46014695
:1021C0001846FFF7DFBF000038B504460D4619B9C1
:1021D000BDE83840FFF762BE91F839309B0604F144
:1021E000080412D501F108022046164903F0CEF882
:1021F0001549204603F0CAF805F119012046FFF7FA
:10220000BDFF1249204603F0C1F86A8E10492046EE
:1022100003F0BCF829462046FFF7B0FF95F83620BA
:102220000C49204603F0B2F895F937200A492046B8
:1022300003F0ACF895F8382008492046BDE838404E
:1022400003F063B94F350700F433070070A00700AF
:1022500058350700623507006A35070071350700F9
:102260000B4601461846FFF7AFBF00002DE9F04FBF
:102270000C468FB085490546204621F0E9FD06460B
:1022800000287ED18249204621F0E2FD00287FD13E
:1022900020680DF1020121F06AFD064600286CD18C
:1022A000BDF80210A86802AA05F000FB0646002847
:1022B00063D10835BDF822207649284603F025F978
:1022C000BDF820207449284603F01FF928467349B9
:1022D00003F05CF808220DEB0201284603F086F8B3
:1022E0009DF831209DF80030C2F3000161F3000336
:1022F000C2F3400262F3410362F3820301A968461C
:102300008DF80030FFF73EFC65490246284603F091
:10231000FCF89DF8312063492846C2F3001203F00F
:10232000F4F89DF824206049284603F0EEF8049A5A
:102330005E49284603F0E9F8059A5D49284603F00E
:10234000E4F89DF825205B49284603F0DEF89DF966
:1023500026205949284603F0D8F8BDF82E205749C1
:10236000284603F0D2F808E04946204603F00EF86C
:102370008AE0204603F018F8002630460FB0BDE88A
:10238000F08F4F4B4F4A0E2105F1080003F014F96E
:10239000A868DFF85491DFF854A1DFF854B105F0D4
:1023A00005FA00278046B9B2414505F10804E0D29C
:1023B000A86802AA05F07FFA002865D19DF831309F
:1023C0001B0761D4BDF82220002ECDD051462046F7
:1023D00002F0DCFFBDF820205946204602F0D6FF6F
:1023E000049A3949204602F0D1FF059A3649204621
:1023F00002F0CCFF9DF825203449204602F0C6FFAC
:102400009DF824203249204602F0C0FF9DF831207B
:10241000304902F00102204602F0B8FF9DF8312059
:102420002C49C2F34002204602F0B0FF9DF8312053
:102430002849C2F38002204602F0A8FF9DF8302010
:102440002549204602F0A2FF9DF831202349C2F31E
:102450000012204602F09AFFBDF82C201B492046AE
:1024600002F094FFBDF82E201849204602F08EFF9E
:102470001B49204602F08AFF02A92046FFF77EFE94
:102480001849204603F041F801378CE74E3A07001F
:1024900079350700BB350700C83507003134070020
:1024A000D3350700DC350700F2350700FF3507009C
:1024B0006E340700453407000C3607001536070058
:1024C000B8420700804207008F35070098350700A3
:1024D0009F350700A6350700AB350700B03507006C
:1024E000F433070011350700B73507007E350700C4
:1024F000853507002DE9F0430C4693B0002392493F
:10250000ADF806300546204621F0A2FC064600281C
:1025100040F00D818D49204621F09AFC002840F0C2
:102520000D818B49204621F093FC0646002840F09F
:10253000A9808849204621F08BFC0746002800F03E
:10254000F4808249201D21F083FC38B9824B834AF4
:10255000042105F1080003F02FF83E46DFF8488219
:102560007F4FDFF84892A86808AA0DF1060105F030
:102570008FF8002840F08280BDF8302005F1080473
:10258000002E00F0C3804946204602F0FFFE08A955
:102590002046FFF7F3FD0A9802A9152205F0F7F887
:1025A00002AA20466F4902F0F1FE0B9802A91522FB
:1025B00005F0EDF86C4902AA204602F0A6FFD2E72A
:1025C000BDF830204946204602F0E0FE2C4608AA1D
:1025D00054F8080F0DF1060105F05AF800284AD109
:1025E000002EEDD09DF8463013F0080F14BF4322A3
:1025F00052224146204602F0C9FEBDF8302039463D
:10260000204602F0C3FE0A9A5849204602F0BEFE58
:102610009DF93D205649204602F0B8FE9DF93E2026
:102620005449204602F0B2FE9DF846205249204609
:1026300002F0010202F0AAFE9DF846204E49204613
:10264000C2F3400202F0A2FE9DF846204A49C2F3BE
:102650008002204602F09AFE2046484902F096FE8B
:1026600008A92046FFF78AFDBDF8442044492046CA
:1026700002F04BFFAAE7204602F096FE002013B0BE
:10268000BDE8F08305F108043E4B3F4ADFF81C81AA
:102690003E4F3F4E0721204602F08EFFA86808AA51
:1026A0000DF1060104F0F4FF0028E7D1BDF8302059
:1026B0004146204602F06AFE08A92046FFF75EFD6B
:1026C00002A9BDF8400002F03DFE39460246204610
:1026D00002F05CFE02A9BDF8420002F033FE314672
:1026E0000246204602F052FE9DF93D20294920462F
:1026F00002F04CFE9DF93E201D49204602F046FEA8
:102700000A9A2549204602F000FFC7E741462046C5
:1027100002F03CFE08A92046FFF730FDDDE90A2360
:102720003946204602F0F1FE1DE70720A7E71B4BC4
:102730001B4A0A2105F1080002F03EFFDFF868900D
:10274000DFF86C80174F41E74E3A070079350700F4
:102750002E36070092360700904307003C430700DF
:10276000AD3607009B360700A33607004236070048
:102770004A36070051360700A6350700F433070034
:10278000583607009E430700744307006D36070064
:102790007836070082360700893607009443070021
:1027A0004C43070085350700873507006136070071
:1027B0003A3607002DE9F04F0C4689B06E490546C0
:1027C000204621F045FB074600286ED16B49204684
:1027D00021F03EFB00286FD120680DF10A0121F0A5
:1027E000C6FA0646002840F0C280BDF80A10A86864
:1027F00003AA05F0A4F80646002840F0B8809DF82A
:102800001C205F49083502F00102284602F07DFED7
:102810009DF81C30DA0740F1AA809DF8162059492E
:10282000284602F072FEBDF814205749284602F0EF
:102830006CFE9DF8172055499202284602F065FE6D
:102840009DF81C205249C2F34002284602F05DFE6A
:102850009DF81C309B0740F18A8028464D4902F0C4
:1028600095FD03A92846082202F0C0FD9DF8182016
:102870004949284602F049FE9DF819204749284653
:1028800002F043FE9DF81A204549284602F03DFE1D
:102890009DF81B204349284602F037FE67E01A46A0
:1028A0004946204602F072FD59E03F4B3F4A09215C
:1028B00005F1080002F080FEA868DFF81091DFF84B
:1028C00010A1DFF810B105F038F8002680462C463C
:1028D000F3B254F8080F019303AA194605F02FF834
:1028E00000283CD1019B002FD9D09DF816205146DD
:1028F000204602F04BFDBDF814205946204602F058
:1029000045FD9DF817202A49204602F03FFD9DF81D
:1029100018202849204602F039FD9DF81920264943
:10292000204602F033FD9DF81A202449204602F08B
:102930002DFD9DF81B202249204602F027FD21494C
:10294000204602F023FD03A92046FFF717FC9DF85F
:102950001C201D49C2F34002204602F0D6FD01367C
:10296000F3B24345B3D9204602F01EFD002630469F
:1029700009B0BDE8F08F00BF4E3A07007935070077
:10298000D936070025330700C8350700E3360700AE
:10299000F236070031340700FB36070045340700E4
:1029A0005934070004370700F4410700D0410700FD
:1029B000C4360700CB36070098350700D23607002B
:1029C0007E350700F43307000B350700B7350700E5
:1029D0006335070085350700F7B50C6805460E46D8
:1029E0001F464CB120460DF1060121F0C0F9044606
:1029F00050B1204603B0F0BD006890470749024639
:102A0000284602F082FDF4E7736823B9BDF806108A
:102A10002868B847EDE70724EBE700BF4245070009
:102A2000F8B50E4605461A49304621F011FA38B17C
:102A3000184B194A311D05F10800FFF7CDFFF8BD0D
:102A40001649304621F004FA044610B1144B154AD9
:102A5000F0E71549304621F0FBF908B90720EEE709
:102A6000776857B955F8080F04F065FA0F49024620
:102A7000284602F04AFD3846E1E70D49301D21F0B5
:102A8000E7F90028EAD0A86804F059FA2046D6E70A
:102A90000C3707002F6F0000276F00001937070061
:102AA0001F6F0000176F0000223707004245070024
:102AB00083580700F7B50C6805460E461F4644B11B
:102AC000204601A921F0F1F9044650B1204603B097
:102AD000F0BD0068904707490246284602F015FD00
:102AE000F4E773681BB901992868B847EEE7072433
:102AF000ECE700BFF432070008B5034A034B083087
:102B0000FFF7D8FF08BD00BF057500000D75000078
:102B100008B5034A034B0830FFF7CCFF08BD00BFE0
:102B20000D7800001578000038B50C4605460E49B2
:102B3000204621F08DF938B10C4B0D4A211D05F1CD
:102B40000800FFF7B7FF38BD0A49204621F080F999
:102B500038B1094B094A211D05F10800FFF73CFF78
:102B6000F1E70720EFE700BF263707006176000096
:102B7000597600002E370700757600006D7600004C
:102B8000F7B50D461E462B68074611464BB128681F
:102B90000DF1070121F0DAF8044640B1204603B0F8
:102BA000F0BDFEF797FD04460028F7D0EFE76B680D
:102BB00023B99DF807103868B047EFE70724EDE721
:102BC00008B5034A034B0830FFF7DAFF08BD00BF22
:102BD000E7770000EF77000008B5034A034B0830A1
:102BE000FFF7CEFF08BD00BF1D780000257800006C
:102BF00008B5034A034B0830FFF7C2FF08BD00BF0A
:102C00008D7800009578000008B5034A034B083022
:102C1000FFF7B6FF08BD00BF9D780000A578000053
:102C200008B5034A034B0830FFF7AAFF08BD00BFF1
:102C30002D7800003578000070B50C460546104927
:102C4000204621F005F9B0B1261D0E49304621F08D
:102C5000FFF840B10C4B0D4A04F1080105F10800E2
:102C6000FFF78EFF70BD0A49304621F0F1F820B120
:102C7000084B094AF0E72320F4E70720F2E700BFFA
:102C800038370700423707001B720000137200003C
:102C9000403707002B7200002372000073B50C460A
:102CA00006460DF106012068154621F060F828B9A6
:102CB00063682BB9BDF806103068A84702B070BD34
:102CC0000720FBE738B50C6800F108054CB98068AF
:102CD00004F078FA05490246284602F016FC204620
:102CE00038BD034A2846FFF7D9FFF9E749370700FF
:102CF000CD710000F7B50E4605462149304621F05A
:102D0000A7F838B11F4A311D05F10800FFF7C6FFCB
:102D100003B0F0BD1C49304621F09AF8074668B16F
:102D200004361A49304621F093F820B1A86804F01F
:102D3000F4F90020ECE7164A3146E5E7154930463C
:102D400021F086F8D0B155F8080F0DF1070104F015
:102D5000E9F9064670B13C460F4F9DF80720E3B2F3
:102D60009A4207D936F813203946284602F00EFB5E
:102D70000134F2E7284602F017FBDAE72320C7E721
:102D8000CD320700FF7000005037070038F1070010
:102D90000D71000057370700B735070070B50C6894
:102DA000164605461A4614B1FFF778FF70BD006855
:102DB000B04703490246284602F0A7FB2046F5E744
:102DC0004245070008B5034A034B0830FFF7E6FF0A
:102DD00008BD00BFAD770000B577000008B5034A15
:102DE000034B0830FFF7DAFF08BD00BFF77700009C
:102DF000FF77000073B50C4606460DF10701206809
:102E0000154620F0A3FF28B963682BB99DF8071079
:102E10003068A84702B070BD0720FBE737B50C4605
:102E200011461A46236805462BB121462846FFF76E
:102E3000E1FF03B030BD0192FEF74CFC019A00287F
:102E4000F7D0F2E7F8B50D4606461049284620F0BF
:102E5000FFFF06F1080748B1B0680EF047FD0246D3
:102E60000B49384602F051FB0020F8BD09492846BD
:102E700020F0EEFF18B1B0680EF03CFDEFE7064B16
:102E8000064A29463846FFF7C9FFEEE79DF30700DB
:102E90005B37070061370700537100004B7100007A
:102EA00008B5034A034B0830FFF7B8FF08BD00BF61
:102EB0003D7800004578000008B5024A0830FFF769
:102EC00099FF08BDDD77000008B5024A0830FFF71A
:102ED00091FF08BD4F78000038B50C68054644B92D
:102EE0000068904704490246284602F00EFB20463F
:102EF00038BD0720FCE700BF1B35070038B50C467E
:102F000005461149204620F0A3FF30B10F4A211D8C
:102F100005F10800FFF7E0FF38BD0D49204620F01D
:102F200097FF08B10B4AF2E70B49204620F090FFCB
:102F300008B10A4AEBE70A49204620F089FF08B1A8
:102F4000084AE4E70720E7E729A20700AD7300007D
:102F50006B370700B573000071370700BD730000C1
:102F60007B370700C573000038B5094A04460830AE
:102F70000D46FFF7B1FF48B1296831B16B6823B93D
:102F8000A068BDE8384004F05CBB072038BD00BF36
:102F90003B76000038B5094A044608300D46FFF775
:102FA0009BFF48B1296831B16B6823B9A068BDE8BF
:102FB000384004F023BB072038BD00BFF575000082
:102FC00038B50C4605460A7A074902F09EFA62882F
:102FD0000649284602F099FA626805492846BDE884
:102FE000384002F092BA00BF384507004545070057
:102FF000574507001FB50B680446E3B90F4902F0B7
:10300000C5F9206801A903F081FF78B9204602F0D4
:10301000CBF90B49BDF80420204602F076FA01A94D
:103020002046FFF7CDFF002004B010BD0549204623
:1030300002F06BFAF7E72320F6E700BF6A450700C6
:1030400077450700884507000968006869F0C1BA3C
:103050000968006869F0BDBAD1E9002302F0E2B95D
:10306000D1E9042302F0DEB9B1F85A20014902F097
:103070004CBA00BF4245070001F13002014902F09D
:1030800044BA00BF1B350700B1F85820014902F0CF
:103090003CBA00BF493707000A6F014902F035BA50
:1030A0008E4507004A6D014902F02FBAF43207003D
:1030B0000822413102F09AB91022203102F096B96B
:1030C000493102F0FDB90B6810B514461A1D0A60AB
:1030D0001868214620F0DEFD08B92081A07210BDDD
:1030E0000B6810B514461A1D0A60186804F1100127
:1030F00020F0D0FD08B92083A07610BD0B68181D04
:103100000860186802F15A0120F031BE0B68181DE2
:103110000860186802F1580120F029BE0B68181DDC
:103120000860186802F1700120F0BFBE0B68181D1E
:103130000860186802F1540120F0B7BE0B68104611
:103140001A1D0A6000F141010822186820F05FBED4
:1031500030B50B6885B015461A1D0A6018686946B7
:1031600020F04BFE044628B96B4603CBC5F8490056
:10317000C5F84D10204605B030BD0B68186830B159
:1031800004330B60014602F1300003F007BF072053
:10319000704700002DE9F0410D4607461B4928689D
:1031A000144620F055FE2B681A1D2A6020B3D3F870
:1031B0000480B8F1000F27D094F8773093B104F170
:1031C000300694F8783093B104F1410204F15C03C5
:1031D0003146404603F0E0FE10B92B6804332B6003
:1031E000BDE8F081386804F005FA0646E9E738687A
:1031F00004F091F90246E9E704F15C011868BDE8C2
:10320000F041102220F003BE0720E9E73333070026
:1032100008B5FF220021024869F0C6F8002008BD69
:10322000E02B002070B50C46E2B005461749204659
:1032300020F00EFE18BB1649204620F009FE18B3F8
:103240000126FE236068ADF8063022AA0DF10601C2
:1032500020F0EBFD78B9BDF806308DF8863102A973
:1032600022A803F0A2FE044628B9286822A946B97C
:1032700003F06FFE00B10446204662B070BD002628
:10328000DFE703F070FEF5E70724F5E79645070052
:103290004864070010B50C6834B9044991F8FE2061
:1032A00002F0A4F8204610BD0720FCE7E02B002028
:1032B00030B50C46A1B005461D49204620F0C8FD9A
:1032C00028B11C49286803F03FFE21B030BD1A49DF
:1032D000204620F0BDFD20B11649286803F03EFECF
:1032E000F3E71649204620F0B3FD50B1286869463F
:1032F00003F0A0FE0028E8D10E49684603F06DFEF9
:10330000E3E70F49204620F0A3FD78B1094D60683E
:10331000FE232A466946ADF8003020F086FD0028DD
:10332000D3D1BDF8003085F8FE30CEE70720CCE7DA
:1033300096450700E02B0020486407009D450700E4
:10334000A145070038B50D4604460C49284620F033
:103350007FFD28B120680A49BDE8384003F0F9BD77
:103360000849284620F074FD28B120680449BDE8CA
:10337000384003F0F8BD072038BD00BF9645070070
:10338000E02B00204864070010225C3102F02EB8C8
:103390000B6810461A1D0A6000F1200110221868FF
:1033A00020F035BD70B51368A2B006460D460192F7
:1033B000D3B91E4802A903F0F8FD044688B96B682A
:1033C00022AA134413F80C3C5BB1EA68AB685110B5
:1033D000D50706EB620048BF725802A948BFD35810
:1033E0009847204622B070BD8022002102A868F0D4
:1033F000DBFF6A692B69511006EB6200D20748BFF8
:10340000725801A948BFD35802AA98470446002819
:10341000E7D16B68054922AA1344012203F80C2C5A
:1034200002A803F0EEFD0446DBE700BFE02B00201E
:1034300038B50C460A882249054601F0A7FFA37853
:10344000D80703D51F49284601F0A0FFA3789907A4
:1034500003D51D49284601F099FFA3785A0703D5E3
:103460001A49284601F092FFA3781B0703D5184993
:10347000284601F08BFFA378D80603D515492846C6
:1034800001F084FFA378990603D51349284601F07B
:103490007DFFA3785A0603D51049284601F076FF30
:1034A000E378DB0703D50E49284601F06FFFE27889
:1034B0000C492846C2F34202BDE8384002F025B864
:1034C000B73507008F370700E6E907006C5F070094
:1034D000F6480700B93A07000B49070068E2070001
:1034E00072AA0700414507006C31FFF7A1BF000039
:1034F00073B50023019313680E46186801A9154699
:1035000020F035FC044600287FD129684A680B1D4D
:103510002B60002A77D0013A12F8013F002B5BD0D4
:10352000722B05D8622B05D8432B3FD0522B4CD0A1
:1035300007246AE0633B0F2BFAD801A050F823F070
:10354000A335000031350000B735000031350000EB
:1035500031350000313500003135000031350000D3
:103560003135000031350000313500008F35000065
:1035700081350000C135000031350000993500006B
:103580009DF8063043F001038DF80630C4E79DF83E
:10359000063043F00203F7E79DF8063043F00403DA
:1035A000F2E79DF8063043F00803EDE79DF806309A
:1035B00043F01003E8E79DF8063043F02003E3E70B
:1035C0009DF8063043F04003DEE79DF8073043F0F6
:1035D00001038DF807309FE7886801F108032B602D
:1035E00088B10DF1030120F0B1FB88B92B689DF87B
:1035F00003200433072A2B609AD89DF8073062F322
:1036000043038DF8073001983060204602B070BD4A
:103610000446FAE713460A4603F16C01FFF768BF58
:1036200007B5044B00930E22182304F0E4FA03B00C
:103630005DF804FB493000002DE9F047A2B00446D4
:10364000084602A903F0B1FC064658BBDFF85CA0AF
:10365000DFF85C80DFF85C900C27DAF80430019327
:10366000414601A8FFF7DCFF436822AA1344054640
:1036700013F80C3C93B1DAF800204946204601F0DB
:1036800085FEEB685A1013F0010F18BFA25804EB27
:103690006300AB6802A918BFD3589847013F0AF1ED
:1036A000080ADAD1304622B0BDE8F0879846070014
:1036B00064470700845D070070B5C0B005460E463C
:1036C0000068694603F040FC044630B933683BB9F2
:1036D00069462846FFF7B0FF0446204640B070BD5B
:1036E0000649304620F0B4FB30B19DF8FE20694613
:1036F000284601F07BFEF0E70724EEE7453A070095
:1037000070B5C0B005460E460068694603F026FC59
:10371000044630B933683BB969462846FFF78CFF49
:103720000446204640B070BD0649304620F090FB6C
:1037300030B19DF8FE206946284601F057FEF0E7BB
:103740000724EEE7453A07002DE9F047C4B00E46DE
:1037500004468022002104A868F026FE334FDFF8DB
:10376000D880331D02934FF00009029BD3F800A0CC
:10377000BAF1000F38D0394603A8CDF80CA0FFF7F6
:103780004FFF0546C0B14269029B511004EB620035
:103790000433D20748BF625802932B6902A948BF7D
:1037A000D35804AA984700283AD16B6844AA134416
:1037B000012203F88C2CD8E70298414620F048FB00
:1037C000002830D0029B1A1D02928022ADF80C20F6
:1037D000586824AA03A920F028FB08BB029B9DF887
:1037E0000C9004330293C0E71149304620F030FBBF
:1037F000054668B90F49304620F02AFB98B1CDE95B
:10380000005520684B4624AA04A903F0C0FB07E03A
:10381000CDE900AA20684B4624AA04A903F0ADFB19
:1038200044B0BDE8F0870720FAE700BF644707000F
:103830009645070048640700453A07002DE9F04F18
:10384000002493B0CDE90344DFF8E090DFF8E0A076
:10385000059406460D4601F104082746D8F800B045
:10386000BBF1000F38D02E49CDF808B002A8FFF701
:10387000D7FE48B1426812AB1A44012102F83C1C41
:10388000C3460BF10408E9E74946404620F0E0FA58
:1038900070B12022ADF80820D8F804000AAA02A9C5
:1038A00008F1040B20F0C1FA48B99DF80870E8E768
:1038B0005146404620F0CCFA044618B9072013B010
:1038C000BDE8F08FD8F8040006A908F1040B20F039
:1038D00094FA0028D5D0F2E71249284620F0B8FA29
:1038E00058B130680CB10DF1180BCDF800B03B4663
:1038F0000AAA03A903F03CFBE1E70B49284620F0A4
:10390000A7FA0028DAD030680CB10DF1180BCDF809
:1039100000B03B460AAA03A903F034FBCFE700BF7F
:10392000644707009645070048640700453A0700CA
:103930000FF20700F0B50B6885B005460C4623B9B9
:103940002049FFF779FE05B0F0BD1F49204620F061
:103950007FFA60B11D4F1E4E0024E25931462846C1
:103960000C3401F0D2FD6C2CF7D10020EBE723687A
:103970001849039303A8FFF753FE014620B1221D07
:103980002846FFF70FFDDEE723680393124B0093F1
:103990000C230DEB03000D49092204F02CF903461A
:1039A00068B182685B68511005EB6200D20748BFBE
:1039B0006A5804F1040148BFD3589847C3E723204D
:1039C000C1E700BFE02B002014350700F8460700D0
:1039D0001B35070064470700513000000968006884
:1039E00068F0F7BD38B50C6805464CB9006803F0BF
:1039F000A9FC04490246284601F087FD204638BD4F
:103A00000720FCE74245070038B50C680546084624
:103A10004CB9286803F09AFC08490246284601F090
:103A200074FD002038BD064920F012FA18B128684C
:103A300003F090FCF5E70720F4E700BF42450700DC
:103A40008358070030B50C4687B00546114920461B
:103A500020F0FEF9D8B102A9201DFEF72CF9172895
:103A600007D1002360688DF810300822694620F0E5
:103A7000CEF930B99DF81030286823B102A903F0BF
:103A80008FFC07B030BD694603F085FCF9E70720DD
:103A9000F7E700BFB4480700C0E900127047437C55
:103AA0005A0744BF702301F8013B437C1B0744BF06
:103AB000612301F8013B437CDA0644BF642301F82B
:103AC000013B437C9B0644BF632301F8013B437CDD
:103AD0005A0644BF722301F8013B437CDB091CBF3B
:103AE0006F2301F8013B837CDB0744BF732301F89C
:103AF000013B837C9A0744BF6E2301F8013B837C22
:103B00005B0744BF442301F8013B00230B7070475F
:103B100030B50C4687B0054601F0AAFC01A9204645
:103B2000FFF7BDFF9DF8043023B1094901AA2846DB
:103B300001F02CFC607C40F3010040B2FEF7DCF8A1
:103B4000A38A04490246284601F0DFFC07B030BDD5
:103B50001A350700BA480700037D1B0744BF7323CB
:103B600001F8013B037D5A0744BF6E2301F8013B76
:103B7000037D9B0644BF612301F8013B00230B70CA
:103B80007047000030B50C4687B0054601F070FC68
:103B900001A92046FFF7E0FF9DF8043023B1094951
:103BA00001AA284601F0F2FB207D40F3010040B25B
:103BB000FEF7A2F8638A04490246284601F0A5FCF4
:103BC00007B030BD1A350700BA48070038B50C46B3
:103BD00005464A68114901F0D9FB227A04F109012E
:103BE000284601F0F1FB0E49284601F0CFFB94F87E
:103BF000072104F58471284601F0E6FB94F80631AC
:103C0000DB0703D50749284601F0C0FBB4F80022C2
:103C100005492846BDE8384001F077BCC348070095
:103C200070A00700C8480700CD35070013B9006829
:103C300003F098BB1720704713B9006803F097BBD7
:103C40001720704713B9006803F096BB1720704720
:103C5000F0B5ADF51B7D00230E4662490093044686
:103C6000154601F052FC4FF6FF77334606AA694627
:103C70002046FFF7DBFF50B9BD4203D0BDF82C3022
:103C8000AB42F2D106A92046FFF742FFEDE75649C5
:103C9000204601F03AFC002300934FF6FF773346AD
:103CA0000CAA69462046FFF7C7FF50B9BD4203D0B2
:103CB000BDF84230AB42F2D10CA92046FFF762FFBB
:103CC000EDE74A49204601F020FC002300934FF61F
:103CD000FF77334619AA69462046FFF7B3FF50B96C
:103CE000BD4203D0BDF86432AB42F2D119A92046DF
:103CF000FFF76CFFEDE7002E5DD14FF6FF739D429D
:103D000059D13B493B4D204601F0FFFB009620680E
:103D100001AA694603F035FB88B90DF1060120467A
:103D200001F0A6FB9DF805309DF80420002B14BF80
:103D300063232D232946204601F0E7FBE7E72068AF
:103D400012A903F023FB2C49204601F0DEFB9DF86D
:103D500060309D0732D5BDF84A202849204601F041
:103D600015FB9DF86030D8072DD5BDF848202449B3
:103D7000204601F00BFB9DF86030190728D5BDF8EF
:103D80005E201E49204601F001FB9DF860305A0775
:103D900023D59DF84C200DF14D01204601F014FB78
:103DA0009DF86030DB0603D51649204601F0EEFA97
:103DB000204601F0F9FA0DF51B7DF0BD12492046B1
:103DC00001F0E4FACDE71049204601F0DFFAD2E72E
:103DD0000D49204601F0DAFAD7E70C49204601F0F8
:103DE000D5FADDE7CB480700D5480700DD480700D6
:103DF000E7480700F1480700F8480700B735070013
:103E0000893507000A490700074907001BA3070077
:103E100030B5C3B0FF2305468DF8073081B900687F
:103E20000DF1070302AA03F088FA044628B99DF8A9
:103E3000072002A9284601F0D9FA204643B030BD38
:103E40000C24FAE72DE9F04F85B000244FF6FF73FC
:103E5000DFF88480DFF88490ADF80E3006460D461A
:103E60002746A2465FFA84FB05EB8B0355F82B200F
:103E7000D2B11846414601931FF0EAFF019B70B989
:103E8000494618461FF0E4FF60B955F82B000DF1C4
:103E90000E011FF06CFF18B105B0BDE8F08F82462F
:103EA0000134DFE70746FBE7BDF80E20BAF1000F4B
:103EB00000D14FB14FF6FF739A420BD127B1514653
:103EC0003046FFF7A5FFE7E730465146FFF7C0FE53
:103ED0000020E1E70720DFE7D5320700453A070079
:103EE0002DE9FF410B6805460C4693B9DFF8788051
:103EF0001A4F002656F80820394628460C3601F09D
:103F000004FB302EF6D123682BBB232004B0BDE880
:103F1000F081134920461FF09BFF0028E6D123685B
:103F20000393104B00930C230DEB03000E49042266
:103F300003F061FE03460028E7D082685B685110F9
:103F400005EB6200D20748BF6A5804F1040148BF7C
:103F5000D3589847DAE70020D8E700BF1B350700A1
:103F600014350700DD39000024490700C0E90012BC
:103F7000027A6FF30002027270470968002330B5BD
:103F8000136001394FF47A730A2411F8010FE8B174
:103F9000A0F13005092D11D8B3F57A7F02BF106862
:103FA0006043106008781568303803FB0050B3F5A3
:103FB0007A7F1060E9D0B3FBF4F3E6E72E2804D152
:103FC000B3F57A7F01D16423DFE7072030BD00001D
:103FD00070B50E4692B004464E4930461FF038FF89
:103FE00028B1206803F0F7F9002012B070BD4A49EB
:103FF00030461FF02DFF054600B1043600213C225B
:1040000003A868F0D1F9454930461FF021FF68B197
:10401000706803A91FF0F1FE0028E6D1206803A90B
:1040200003F048F808B90720DFE708363C49304676
:104030001FF00EFF18B101238DF8443004362068BC
:104040000DF1070307AA3146FDF762FE0028CCD127
:104050009DF807303BB13349204601F097F907A995
:10406000204601F0FBF9706800282ED1B0680028C6
:1040700031D1F368002B35D1306900283BD1736909
:104080006BB102AA06F114012046FFF776FF002863
:10409000ABD1029BB3F5803FC5D2ADF84030B369D8
:1040A000002BC0D1204B0B93204B206803A9CDE9F6
:1040B0000C3403F08BF9002897D1237A002D65F397
:1040C0000003237208BF24208FE70EA91FF04FFEC4
:1040D0000028CBD089E70DF13A011FF048FE0028F7
:1040E000C7D082E70FAA06F10C012046FFF745FF73
:1040F0000028C1D079E70DF142011FF027FE00280A
:104100007FF473AF9DF84230B3FA83F35B098DF807
:104110004330B4E7E2330700873307005449070010
:10412000574907005A49070069410000154200003D
:1041300037B54A8A08320C46054692B2084901F062
:1041400025F92146284601F077F9238A0093A28AAF
:10415000A37D0449284601F0D8F903B030BD00BF63
:104160007D4907008C4907000B4601461846FFF7BA
:10417000DFBF0000024B186800B9FEE7FDF78EBEF6
:10418000780E002037B50C460A884B881E49054634
:1041900001F0FCF822889AB1237B8BB963889A429C
:1041A0000ED3D11A4FF47A734B430A2193FBF2F3E7
:1041B0002846B3FBF1F201FB1233144901F0E6F893
:1041C000628892B16368608901904FF47A714B43C1
:1041D000B3FBF2F2B2FBF1F301FB132200920C49A4
:1041E00022899BB2284601F0D1F8284601F0DCF87C
:1041F000297A11F0010105D1284603B0BDE830400D
:10420000FFF7B8BF03B030BDAC490700D94907007C
:10421000F24907000B4601461846FFF7B3BF0000FE
:104220002DE9F04790F8A4528AB004460E46002DBE
:1042300040F0E2800B68002B42D10123A0F8A832A5
:1042400040F6262540F6262204F5397104F52B7038
:1042500003F0F8F82022002102A868F0A5F8674BC7
:10426000039394F8A832002B00F0BF80644B0593B1
:10427000644B069304F10806634B0793206802948D
:1042800004F60A5302AA3146CDE9083503F0B5F821
:10429000054688B95D4B039320685D4B049302AAE1
:1042A00004F51E71029403F0C0F80546002800F0E2
:1042B0009F80304603F0B7F828460AB0BDE8F08783
:1042C000544930461FF0C4FDA8B1A4F8A852706844
:1042D0000028B5D002A91FF0E8FD05460028EBD163
:1042E000029DEB1D05EBD3056A1E40F625239A427D
:1042F000A8D90725E0E7484930461FF0A9FD074641
:1043000018B10123A4F8A832E1E7444930461FF070
:104310009FFD0028EDD040F2011304F5C658A4F823
:10432000A83208F1180804F5D15A04F01BFF0AF16D
:104330000C0A404604F5BA592DF05EF909F1180946
:10434000504604F5C25508353CF00CF9484628F0B3
:1043500089F8284628F0C8FB3A463149284628F013
:104360008CF83946284628F081F82E49284628F04E
:104370008DF803221146284628F005F9032211463C
:10438000284628F0FBF8E922274900973B4650468B
:104390003CF0F0FD024618B12449204601F0B5F882
:1043A00040F22D32224940462DF0B0FD024618B1B0
:1043B0002049204601F0A9F840F299221E494046C2
:1043C0002DF0A4FD024618B11C49204601F09DF8CD
:1043D0002946484628F094FA024600283FF477AF71
:1043E0001749204601F091F871E7164B04933FE717
:1043F000012384F8A4325FE718255DE7394E0000F9
:10440000994E00000B4F0000914800003D4900000C
:104410007D4900001C4A0700234A07002C4A070078
:10442000F5940000F4580700304A0700194B0700C4
:104430003A4B0700674E07008E4E070027510700D2
:104440004E5107005D4C000090F8A43223B10B6878
:1044500023B9083002F0E3BF0D20704707207047F2
:104460000968006868F0B5B80B68F7B50446CBBBBF
:1044700090F8A432C3B390F8A932ABB104F08CFE2B
:1044800004F5C250083028F099FB04F5BA501830F2
:1044900028F0D2FA04F5D1500C303CF067F804F55E
:1044A000C65018302DF0ADF804F1080002F0BBFF43
:1044B0000027064684F8A77204F52B70019002F0DD
:1044C000CFFF019802F0CEFF054604F51E7002F002
:1044D000B7FF84F8A4724EB9BD4208BF054628460E
:1044E00003B0F0BD0725FAE70D25F8E73546F6E7F6
:1044F0000B6810B504465BB990F8A43253B108308C
:1045000002F08FFF18B984F8A50284F8A60210BD46
:104510000720FCE70D20FAE70B6833B990F8A432C6
:104520002BB100F51E7002F089BF072070470D20E7
:1045300070472DE9FF4190F8A43205460E46002B46
:104540005DD041F23C73C358002B5ED10F68002F41
:1045500057D04C68002C54D190F8A83243B390F84F
:10456000A9820846B8F1000F13D01FF06AFC02467A
:1045700005F5BA503946183029F070FE002842DAA5
:1045800020F0800010F5D24018BF012004B0BDE833
:10459000F0811FF056FC03AA03460092CDF8048078
:1045A0003A4605F52B7105F1080002F04DFFEDE7E5
:1045B00090F8A7324BBB00F53974C0F8D832C0F878
:1045C000DC4208461FF03DFC40F62622904203D80C
:1045D00030461FF036FC02463168C5F8E02220461E
:1045E00068F0C6FA002205F5367105F1080002F000
:1045F00010FF0028CAD1012385F8A732C6E70D2095
:10460000C4E70720C2E72046C0E70520BEE730B573
:1046100090F8A43287B005460C46A3B1206801A9E2
:104620001FF0EBFB58B9606805A91FF0A0FB30B97B
:10463000A36833B901A905F1080002F0E6FE07B04E
:1046400030BD0720FBE70D20F9E730B590F8A43224
:1046500087B004460D46CBB1286801A91FF0CDFBF9
:1046600080B9686805A91FF082FB58B9AB685BB9CF
:1046700004F51E74204602F0E1FE18B901A9204697
:1046800002F0DAFE07B030BD0720FBE70D20F9E7A6
:104690002DE9F0471F4690F8AA32ADF5007D04469B
:1046A0000E46154663B990F8A932002B3CD01FB1D5
:1046B0002B49204600F029FF0DF5007DBDE8F0876D
:1046C000002AF4D090F8A93283B300F5BA56DFF887
:1046D0009880DFF8989018360DF10C0A4FF4FA72B2
:1046E000514630462AF0A6F9021E07DA12F5D24FDB
:1046F0000CD04946204600F008FFEDE7CDF800A0B9
:1047000013464146204600F000FFE5E715492A46DA
:10471000204600F0FAFECAE7454500D0FEE72946EC
:10472000304602F07AFEC2E7002AC0D003A9304624
:1047300002F071FEDFF838904FF00008039A002A6B
:10474000EAD0D2E901234946009220461A4600F0F9
:10475000DCFE039B9A681B6803939044EEE700BF5E
:10476000D7510700A1510700845107006C51070081
:10477000BA510700C0E900120121A0F8A81241F2C5
:104780003C710022C0F8A42280F8AA22425000F511
:10479000BA510A6041F24871425041F2507200F140
:1047A0000801815041F2547200F52B71815070471D
:1047B0002DE9FF410B6805460C4693B9DFF8788078
:1047C0001A4F002656F80820394628460C3600F0C5
:1047D0009CFE782EF6D123682BBB232004B0BDE8C5
:1047E000F081134920461FF033FB0028E6D12368EF
:1047F0000393104B00930C230DEB03000E490A2288
:1048000003F0F9F903460028E7D082685B6851108D
:1048100005EB6200D20748BF6A5804F1040148BFA3
:10482000D3589847DAE70020D8E700BF1B350700C8
:10483000143507006144000014590700042A96BF8C
:10484000104B114A53F82220104910B5044600F0CD
:104850005CFE94F8A93223B104F5BA50183028F060
:10486000E8F841F23C72002384F8A532A4F8A6329D
:10487000A35004F5BA5204F52B701360BDE8104044
:1048800002F0EEBD00590700725A0700F25107000E
:1048900013B50446019102F0B5FD019A214602B01C
:1048A000BDE81040FFF7CABF38B5154690F8A522FD
:1048B000044662B11D4900F069FD2946204600F01A
:1048C00009FE20461A4900F020FE012038BD00F103
:1048D0000801196090F8A9320BB90020F6E700F53D
:1048E000C255083513460121284628F001F9024631
:1048F00018B11049204600F008FE41F62823002296
:10490000E158284627F0E6FD04F5D15204F5C651DA
:104910000C321831284627F0BFFD02460028DCD0B3
:104920000549204600F0F1FDD7E700BFFA51070026
:104930002A520700435207006B52070037B50D4655
:104940000446019202F076FD019B2A46214603B0FF
:10495000BDE83040FFF7A8BF38B51D460123044627
:1049600080F8A532044900F011FD29462046BDE833
:10497000384000F0C1BD00BF9152070037B50D4669
:104980000446019202F056FD019B2A46214603B0DF
:10499000BDE83040FFF7E0BFF0B52B4F87B00446CD
:1049A00000F5BA5633681BB90025284607B0F0BD9C
:1049B00004F52B710846039102F050FD0028F3D056
:1049C00035680399B5F5826F2B4628BF4FF4826393
:1049D00098424FF0000215D99D4294BF0025012551
:1049E000059294F8A922FAB104F5BA501A4639464C
:1049F000183029F033FC002806DD33680590984212
:104A00001DD9FEE71546EBE720F0800010F5D24FE8
:104A100015D001250D49204600F077FD41F23C728A
:104A20000023A3503360C0E705AA0195009204F16A
:104A300008003A4602F008FD05460028EAD133682E
:104A4000059A9B1A3360ADE7AB520700BC560700CE
:104A500041F24C7370B5C25841F248734FF4FA54A6
:104A6000C358590804FB02140849B4FBF3F4054683
:104A700000F04BFD4FF47A732846B4FBF3F204497F
:104A800003FB1243BDE8704000F03FBDD156070064
:104A900013570700F8B50D4604463F4928461FF056
:104AA000D7F9D8B13D49204600F070FC41F23C7383
:104AB000E6582EB13A49204600F027FD0020F8BD07
:104AC00041F24873E5583DB12046364900F01DFDDE
:104AD0002046FFF7BDFFF1E73349ECE733492846AD
:104AE0001FF0B6F950B394F8A732002B52D141F21F
:104AF0003C76A119A359002B4CD16868B8B94FF482
:104B00009033A351AB68CBB901F053F841F2447331
:104B100041F23C76E05004F5BA5394F8A852A759F4
:104B20001F606DB12046BDE8F840FFF735BF1FF0AC
:104B3000BCF90028C3D1A359002BE3D10720BEE75D
:104B400004F5397340F626226121184667F02CFCE3
:104B500007F6252140F625229142AFD941F2307166
:104B600041F234726550A05040F62622B7FBF2F3B2
:104B700002FB1373002B08BF134641F23872214425
:104B8000A35004F108002A4602F043FC002895D007
:104B9000A55194E7052092E72E57070035570700E7
:104BA0004C570700545707005E5707006757070028
:104BB00038B5044600F0FDFF41F2447341F23C7504
:104BC000E358C01A41F24873E05041F24C73625905
:104BD000E2502046FFF73CFF0023635138BD000040
:104BE000F8B590F8A8520446114605B1FEE741F227
:104BF0003C7600F53673825942B9994205D190F856
:104C0000A73203B9FEE780F8A722F8BD994200D188
:104C1000FEE700F5BA528F681368BB4200D2FEE788
:104C2000DB1B136040F6252293420ED940F6262363
:104C30008B602A46083002F0ECFB0028E5D00649DC
:104C4000204600F062FCA551DFE7002BDDD1BDE876
:104C5000F840FFF7ADBF00BFBC56070013B50446D0
:104C6000019102F0CFFB019A214602B0BDE810404D
:104C7000FFF7B6BF73B500F5BA55183511490446AC
:104C8000284627F043FC024618B10F49204600F0A1
:104C90003CFC0E220D49284627F020FC024618B1A4
:104CA0000B49204600F031FC002604F5BA51094BAF
:104CB000094A00961031284627F0E2FB84F8AA62E0
:104CC00002B070BD6B570700755707009A57070071
:104CD000A95707009D7400006974000038B590F86A
:104CE000AA320546CBB900F5BA50183027F0D6FCE9
:104CF0000124024638B90A49284600F006FC85F826
:104D0000AA42204638BD20F0800313F5D24FF8D0D8
:104D10000449284600F0F9FBF3E70024F1E700BF5F
:104D2000D9570700F0570700F0B590F8A43287B0C4
:104D300004460F46002B5FD000680DF1030301AA63
:104D4000FCF7E6FF054608BB9DF803303BB12B4955
:104D5000204600F01BFB01A9204600F07FFB78688D
:104D600005A91FF004F8054680B9BB68002B41D0A7
:104D700007F10805224928461FF06AF8064640B99F
:104D8000204928461FF064F820B90725284607B0B7
:104D9000F0BD0126FB68002BF7D194F8A9326BB166
:104DA000002304F5C2501A461946083027F0A0FE29
:104DB000024618B11449204600F0A7FB324601A96B
:104DC00004F1080002F023FB05460028DED1012390
:104DD00084F8A532734084F8A63294F8A932002BE7
:104DE000D4D0002ED2D12046FFF744FF2046FFF753
:104DF00075FFCBE70126D0E70D25C7E70958070067
:104E000032580700375807004352070010B50446D0
:104E1000084900F07AFB94F8A93253B194F8A6320D
:104E20003BB92046FFF726FF2046BDE81040FFF7BC
:104E300055BF10BD3C58070007B5019002F0E2FADB
:104E4000019903B05DF804EBFFF7E0BF38B590F8C7
:104E5000A8320446154603B9FEE7114600F52B704B
:104E600002F0FAFA94F8A93213B12046FFF736FFA0
:104E700041F23C73E35873B104F5BA531B6823B194
:104E80002046BDE83840FFF787BD25B92046BDE87C
:104E90003840FFF78DBE38BD37B50D460446019248
:104EA00002F0B0FA019B2A46214603B0BDE830402B
:104EB000FFF7CCBF2DE9F0411F4600F108039942EE
:104EC00004460D46164600D0FEE790F8A5328BB991
:104ED00090F8A922012380F8A53280F8A6323AB9C9
:104EE0003B46324629462046BDE8F041FFF7D0BB9D
:104EF000FFF7C0FE94F8A932002BF1D02046FFF74F
:104F0000EDFE0028ECD0BDE8F081F7B50D46164661
:104F10001F46044602F076FA009733462A46214699
:104F2000FFF7C8FF03B0F0BD70B50C4686B005466C
:104F3000134920461EF08CFFB0B1043400262068CF
:104F400001A91EF05AFF68B9606805A91EF00FFF9D
:104F500040B9A36893B92868334601AA05F10C014A
:104F600002F061FD06B070BD064920461EF070FFDC
:104F700010B104340226E2E70126E0E70720F1E75A
:104F80008C5907008F59070030B587B004460DF1E2
:104F90000303006801AA0D46FCF7BAFEB8B99DF8F4
:104FA00003303BB10C49204600F0F0F901A920463E
:104FB00000F054FA686805A91EF0D9FE38B9AB684C
:104FC0003BB9206801AA04F10C0102F031FD07B0E1
:104FD00030BD0720FBE700BF0958070000F10C01B6
:104FE000006802F01BBD000013B500F10C0104467F
:104FF0000068019102F003FD40B9064A019920685A
:10500000234602B0BDE8104002F0F4BC182002B004
:1050100010BD00BFE15200000968006867F0D9BA0E
:1050200010B50C680B4634B100F10801BDE8104022
:10503000184600F001BB017A00F078FA204610BD56
:1050400010B50123C0E90012044603723422002186
:105050000C3067F0A9F9204610BD73B53023054622
:105060000C468DF807306126DCB101220DF10701F5
:10507000284602F038F9A8B99DF807305A2B07D016
:105080007A2B0AD0392B0AD141238DF8073001E061
:105090008DF80760013CA4B2E6E73023F5E7013361
:1050A000F3E7204602B070BD70B590B0054601919F
:1050B000322603AA0DF10A0101A8ADF80A601EF01C
:1050C000BDFE044608B124280AD1BDF80A2003A970
:1050D000284602F008F908B1044601E0002CE8D1A6
:1050E000204610B070BD0000F0B58DB00F46012312
:1050F0008DF805300546037A8DF80430262200210C
:1051000002A867F051F9BB68EBB128680DF10603FE
:1051100006AA3946FCF7FCFD0446002857D19DF845
:1051200006303BB12C49284600F030F906A9284644
:1051300000F094F978680DF12A011EF018FE04467B
:10514000002844D10837286801A902F045FC06462A
:1051500000283BD0214938461EF07AFED0B178684D
:105160000DF106011EF003FE044678B9BDF80610E5
:105170003046FFF772FF044640B9286802AB32465A
:1051800005F10C0102F059FC044600B3304602F070
:10519000A2F81CE0124938461EF05AFE28B1796880
:1051A000C1B13046FFF780FFE5E70E4938461EF0F3
:1051B0004FFE00B104373C6864B138461EF041FE32
:1051C00021460246304602F08EF8D4E703242046FA
:1051D0000DB0F0BD0724D9E792590700B859070070
:1051E000453A0700BB5907002DE9FF410B6805460A
:1051F0000C4693B9DFF878801A4F002656F808203D
:10520000394628460C3600F080F9482EF6D123683E
:105210002BBB232004B0BDE8F081134920461EF0CB
:1052200017FE0028E6D123680393104B00930C234C
:105230000DEB03000E49062202F0DDFC03460028B8
:10524000E7D082685B68511005EB6200D20748BF67
:105250006A5804F1040148BFD3589847DAE70020A0
:10526000D8E700BF1B3507001435070019500000B0
:10527000E8590700F0B50446ADF2E45D08460D4676
:10528000164602F02AF80746284602F02AF8114985
:105290003A1A204600F07AF806F11001204600F094
:1052A000CBF8728C0C49204600F070F8284602F0CA
:1052B00018F801AA014640F2DB53284602F015F81F
:1052C00001AA002313540549204600F01EF90DF2EF
:1052D000E45DF0BDBE590700ED3507001B35070042
:1052E000FFF7C8BFC0E9001270472DE970430023E3
:1052F00004460D46137554EA050306D1302302F126
:105300001306D3743046BDE8708302F114062046BC
:1053100029460A22002363F001FF303206F8012DEE
:10532000204629460A22002363F0F8FEA946A0463B
:10533000B9F1000F08BFB8F10A0F04460D46E6D2D6
:10534000E0E7000037B50546072268460C4603F043
:10535000DCFB42F2107303FB05F04FF6FF73B0FB6A
:10536000F3F064230549B0FBF3F203FB1203684634
:1053700003F0F3FB204603B030BD00BF305A0700F6
:10538000D0E9003018474068FFF7FABF0EB403B504
:1053900003AA52F8041B0192FFF7F5FF02B05DF873
:1053A00004EB03B0704700000149FFF7EFBF00BFF7
:1053B000644E07000A46024B0249FFF7E7BF00BFF1
:1053C000F59C0700585A0700F8B5074E07460C46EB
:1053D0008D18AC4206D014F8012B31463846FFF741
:1053E000D5FFF6E7F8BD00BF385A070010B50446F0
:1053F000FFF7EAFF2046BDE81040FFF7D5BF0000E9
:1054000010B586B01946044610466A46FFF76DFF90
:10541000034902462046FFF7B9FF06B010BD00BFA2
:105420001B35070010B50446FFF7EAFF2046BDE82C
:105430001040FFF7B9BF000010B58AB0044628221B
:105440000846694601F07BFE03496A462046FFF79D
:105450009DFF0AB010BD00BF1B35070010B5044604
:10546000FFF7EAFF2046BDE81040FFF79DBF0000B0
:1054700010B58CB004462D220846694601F063FE43
:1054800003496A462046FFF781FF0CB010BD00BFFC
:105490001B35070013B5CC884B880A8864BAA4B2C0
:1054A0000194898849BA89B25BBA52BA00919BB219
:1054B000024992B2FFF76AFF02B010BD3D5A0700E1
:1054C00010B50446FFF7E6FF2046BDE81040FFF7A1
:1054D0006BBF000010B58CB0044630220846694608
:1054E00001F02FFE03496A462046FFF74FFF0CB03C
:1054F00010BD00BF1B35070010B50446FFF7EAFFDB
:105500002046BDE81040FFF74FBF0EB417B505AAFF
:10551000044652F8041B0192FFF735FF2046FFF7BF
:1055200043FF03B0BDE8104003B07047034A044B8B
:10553000002914BF11461946FFF7E7BF4E5A07006E
:10554000B43B07000CB473B506AD044655F8046BC4
:10555000FFF730FF2A46314620460195FFF713FF3B
:105560002046FFF721FF02B0BDE8704002B070474F
:105570002DE9F341DFF83C800D4F14468E18B442FC
:105580000FD041460190FFF701FF14F8015B01982D
:10559000002DF4D03946013D0190EDB2FFF7F6FE43
:1055A000F5E7044902B0BDE8F041FFF7AEBF00BF28
:1055B0001BA3070033A207002DE9F04FDFF870901E
:1055C000DFF870B085B004460E461F46154603F15D
:1055D000FF3802EB810A55451CD055F8043B18F8FA
:1055E000012F03921846029367F0DCFA039A029B9C
:1055F0000230904206D8C2F1010259462046FFF718
:10560000C5FEE8E700934946134620465242FFF79D
:10561000BDFEE0E720460549FFF777FF3A463146F1
:10562000204605B0BDE8F04FFFF7A2BF12350700D6
:105630005C5A0700565A070070B50D4609490646E0
:105640001EF006FC044618B101232B70002070BD2B
:10565000054930461EF0FCFB08B12C70F6E723200C
:10566000F5E700BF635A07006A5A070073B506469C
:1056700008460DF107011546FFF7DEFF044630B975
:105680009DF807103068A847204602B070BD23245B
:10569000FAE737B5054608460DF107011446FFF74E
:1056A000CBFF28B99DF807102868A04703B030BD8C
:1056B0002320FBE770B50E68154604461A461EB156
:1056C000BDE87040FFF7D2BF0068A84701462046FA
:1056D000FFF72CFF304670BD70B50E6815460446C6
:1056E0001A461EB1BDE87040FFF7D3BF0068A84757
:1056F00001462046FFF71AFF304670BD00F14020FA
:1057000000F50030002382B0036003680193019B21
:1057100002B0704708B5094B020103EB0010084BBB
:105720004168C3F84813C168C3F808130089FFF73C
:10573000E5FF044B0021995408BD00BF7C5A0700C7
:1057400000400240E02C002037B521490122D1E879
:105750004F3FDBB28DF807309DF8073063B1BFF3E0
:105760002F8F1C4BD3F804211B4B12B91A68D20798
:105770002BD51868023025E0C1E8432F002BE6D175
:10578000144B0222C3F80823BFF35F8FD3F8043110
:10579000114A4BB1136801331360BFF35F8F4FF4AD
:1057A0008270FFF7ABFF01230A4C10680225C4F892
:1057B0000453BFF35F8F00240C7013B113680133DF
:1057C00013600130400803B030BD1868FAE700BF2D
:1057D000302D002000400240342D00202DE9F04102
:1057E00006460C46FFF7B0FF0546BFF35F8FDFF8B4
:1057F0002080D8F80475BFF35F8FFFF7A5FF3060F6
:10580000854218BFD8F804752760BDE8F08100BF55
:105810000040024013B5044601A96846FFF7DEFFC9
:10582000019A43F6095340F2FF100021E2FB030105
:10583000400A009A064B40EAC150490AE2FB0301C4
:1058400024B94FF47A72002363F068FC02B010BDF3
:105850000080841EF8B5194D05EB001304460601BF
:105860001889FFF74BFF0F462046FFF7D3FF37B9E4
:10587000134B3344D3E90223904299411CD335445E
:10588000104B6A68C3F84823022CEA68C3F808235F
:105890000AD0032C0CD00A4A012393550A4A1370EC
:1058A000BDE8F84000F0ABBFBDE8F84043F0BCBD38
:1058B000BDE8F84043F0DCB8F8BD00BF7C5A0700F3
:1058C000E02C002000400240202D00202DE9F04176
:1058D0003D4D3E4E05EB021C1401DCF80C70C6F881
:1058E0000873DCF80470C6F84473D3E90063B0426F
:1058F0005ED9861B002E00DA013B0026401846EBDD
:10590000060703EB070C311832B94FF47A7303FB27
:105910000CF0A1FB031C84442D4B480B40EACC4007
:105920004FEA5C36A0FB030E03FB06EE000F40EAD5
:105930000E104FEA1E7E43F609534FEA4E2646EA02
:10594000D0564702A0FB0308091A03FB0E8E6CEB2E
:105950000E0C40F23140DFF880E048430EFB0C00B3
:10596000A1FB0E1E0139704447F6FF7140EB0100A8
:10597000C00BC01946F1000720F07F46A0FB0301D1
:1059800003FB071140F2FF13C01841F10001AAB157
:10599000400A40EAC150490A0E4B0C4A2344C3E96D
:1059A00002012B5903F5A87342F82360BDE8F0818A
:1059B000A3D2361A002EB8BF01339EE74FF4FA2265
:1059C000002363F0ABFBE7E77C5A0700004002408E
:1059D000D07B6308E02C00207B2DE8BDF0B585B0BE
:1059E00006460F46684601A91446FFF7F7FE019DDB
:1059F0002A4A43F6095340F2FF100021E5FB030158
:105A0000400A009B40EAC150490AE3FB020124B965
:105A10004FF47A72002363F081FBCDE9020102ABFF
:105A2000224639463046FFF751FF1D4BD3F8043567
:105A30009D4203D001A96846FFF7D0FE019B43F6C3
:105A40000952023340F2FF100021E3FB0201400A39
:105A5000009A124B40EAC150490AE2FB030124B903
:105A60004FF47A72002363F059FB0E4B03EB0413DF
:105A7000D3E90253A84299414FEA041206D3012107
:105A80002046FFF7E7FE40BF05B0F0BD064B1344CC
:105A9000DA68034BC3F80423F6E700BF0080841ED6
:105AA00000400240E02C00207C5A070038B52A480C
:105AB0004022002166F078FC284B00201860284B1B
:105AC0001870284B00240025C3E9004546F000FC6F
:105AD00046F03CFC0028FBD0234BC02283F8242353
