:1000000000000420B1C90400D9C90400DBC9040000
:10001000DDC90400DFC90400E1C9040000000000DC
:10002000000000000000000000000000E3C9040020
:10003000E5C9040000000000E7C90400E9C90400A4
:10004000D9C80400B9B20400956E0000EBC90400E1
:10005000EBC90400EBC90400EBC90400EBC90400C0
:10006000EBC90400EBC90400EBC90400EBC90400B0
:10007000EBC90400E96A0000EBC90400EBC9040005
:10008000EBC90400EBC90400EBC90400EBC9040090
:10009000EBC90400EBC90400EBC90400EBC9040080
:1000A000EBC90400EBC90400EBC90400EBC9040070
:1000B000EBC90400EBC904000000000000000000D0
:1000C000EBC90400EBC90400EBC90400EBC9040050
:1000D000995E0000EBC90400EBC90400EBC9040001
:1000E000EBC90400EBC90400EBC9040000000000E8
:1000F00000000000EBC9040000000000EBC9040090
:1001000000000000000000000000000000000000EF
:1001100000000000000000000000000000000000DF
:1001200000000000000000000000000000000000CF
:1001300000000000000000000000000000000000BF
:1001400000000000000000000000000000000000AF
:10015000000000000000000000000000000000009F
:10016000000000000000000000000000000000008F
:10017000000000000000000000000000000000007F
:10018000000000000000000000000000000000006F
:10019000000000000000000000000000000000005F
:1001A000000000000000000000000000000000004F
:1001B000000000000000000000000000000000003F
:1001C000000000000000000000000000000000002F
:1001D000000000000000000000000000000000001F
:1001E000000000000000000000000000000000000F
:1001F00000000000000000000000000000000000FF
:100200000348044B834202D0034B03B118477047A5
:10021000E0030020E003002000000000054806493C
:100220000B1AD90F01EBA301491002D0034B03B104
:1002300018477047E0030020E003002000000000A2
:1002400010B5064C237843B9FFF7DAFF044B13B11E
:100250000448AFF300800123237010BDE0030020A9
:10026000000000007C00080008B5044B1BB10449E5
:100270000448AFF30080BDE80840CFE7000000006D
:10028000E40300207C000800A3F5803A704700BF1B
:10029000154B002B08BF114B9D46FFF7F5FF0021C2
:1002A0008B460F461148124A121A68F089FB0C4B14
:1002B000002B00D098470B4B002B00D09847002014
:1002C000002104000D000B4867F014FA67F0AEFF40
:1002D0002000290000F038FC67F076FA00000800E2
:1002E000000000000000000000000420E0030020E7
:1002F000DC430120117C0600C36823F04A0343F06D
:100300000803C360704770B5856804464DB1284640
:1003100050F8046B5EF016FE28464CF084FC35461F
:10032000F4E7626820689200294668F049FB23469A
:10033000C4E9025553F8180B984201D04CF073FCF5
:10034000204670BD8268002322B1117F12680B44E1
:10035000DBB2F9E7C068B3FBF0F070472DE9F04776
:10036000B4B03D4FDFF80491054612A8884658F016
:10037000B1FA3A4B12930024BB68ADF8BC4053F875
:100380000C2CF9682E94D0326A44CDE93044CDE982
:100390003244009342F8D01C019453F80C0C2146CF
:1003A000684458F036FA3B69029353F80C0C7B69A9
:1003B00002AE21463350304458F02BFA7B68BA69BC
:1003C00053F80C3CD0336B440AA843F8D02C244B90
:1003D000009303F1280214330293224B1292CDE9C9
:1003E0000334CDE90544CDE9074409944DF06EFB93
:1003F0001D4B039318230B9303A90EAB12A8CDE951
:100400000C348DF8384058F004FA444608F1100ACC
:100410004FF030074FF00208544512D0494630469D
:100420005EF019F8026852F80C2C03461344394662
:10043000C3F808805EF068F814F8011B5EF0D6F887
:10044000EAE703A928465EF0AEF968465EF0CEFB07
:10045000284634B0BDE8F0879CDB07000CD20700CB
:10046000D0DB070094DC0700D8DA0700F9020000AF
:100470002DE9F84398460368064653F821000D46D7
:10048000174658B104688146236A984510D17A68A6
:10049000A3689A420CD12AB9D9F80000BDE8F883C4
:1004A0000446F1E76168386868F042F90028F3D043
:1004B00020680028F2D07368A146046AB4FBF3F206
:1004C00003FB1244A542EBD00020E7E72DE9F043FF
:1004D000594A044687B00E46D1E900014CF0A6FB0C
:1004E0006368B0FBF3F703FB170780460346324609
:1004F00039462046FFF7BCFF814618B11C3007B0D3
:10050000BDE8F08324204CF0C5FB3246034652F888
:10051000081B43F80C9B91420546436042D11146AB
:1005200006F1180051F804CB43F804CB8142F9D10D
:100530007368AB604FF00009C6F8049086F8089025
:100540000123326004F1100100936268E36885F8CA
:100550001C9004A858F07CF89DF81030002B49D06E
:10056000059F012F22D1264646F8189FA446002059
:10057000A2684CF8080F82B3136AB3FBF7F107FBCC
:100580001133D2F800E056F82310F9B9A1681160D0
:10059000A26046F823C0116809B146F82020184629
:1005A0007246E8E7B3684160C360C1E7B7F1005F36
:1005B00001D357F0DDFFBA00104603924CF06AFBFE
:1005C000039A4946064668F0FBF9CFE709681160CF
:1005D00056F823301A600346E1E7234653F8180B18
:1005E000984201D04CF01FFBB8FBF7F3C4E9006759
:1005F00007FB13872368C5F8208053F82720B8002D
:1006000052B112682A6053F827301D60E368013345
:10061000E36005F11C0072E7A2682A60A5603AB1A8
:10062000126A6168B2FBF1F601FB162243F8225010
:1006300004F108021A50E9E707690FC7F0B595B051
:100640006D469DF8687085E80F002F48072100F07F
:100650003BF9092F3C4620D9642F34BF02260326DC
:100660000AAB2D22314608A808935EF0C2FC089B15
:10067000264A1E444FF0640C632C10D9B4FBFCF0E6
:100680000CFB1041044602EB410012F811104078B7
:1006900006F8010C06F8021DEEE70126E0E7092C3A
:1006A00085BF1A4A02EB4401303412F8142083BF8C
:1006B000497859701A701C70089C20466AF040FAFC
:1006C00081B2204600F000F90221114800F0FCF848
:1006D00095E80F0004AC84E80F0021460EA8FFF750
:1006E0003DFE0EA90B48FFF7F1FE07700EA85EF065
:1006F00029FC0848FFF726FE044608A85EF022FC05
:10070000204615B0F0BD00BFE4350700EC3507000A
:1007100058530700FC03002010B50E4C20464CF047
:1007200005FB0D4A0D4920464CF078FA0C4800F1C3
:10073000180301224FF07E5103600023C0E901231A
:100740000161BDE81040C0E90533034A0549C360B3
:100750004CF064BA180400200000002095CF04007B
:10076000FC03002007030000094A138873B9094BF2
:100770001988094B1B88C3F500608142C8BF81B24C
:10078000118019B10548184406F002BC704700BF3B
:100790001C060020200E00201E0E00201E06002039
:1007A0000749084A0B8810880344C3F30A030B80E7
:1007B00005490B881B1A0B8000231380FFF7D4BF59
:1007C0001E0E00201C060020200E00202DE9F743FD
:1007D000364FB7F800900E461346B9F1000F1BD103
:1007E0000A4633484FF400616CF0A0F8B0F5006F92
:1007F000044607D32F48314606F025FE204603B0B5
:10080000BDE8F0832C4B3880A3F800902B4BA3F865
:100810000090FFF7A9FFF1E7DFF89C802448B8F8C3
:1008200000500192A944C9F30A094D458CBFA5EBBC
:100830000905C9F50065ADB20A46484429466CF081
:1008400075F8041E04DA1B48314606F0FCFDE0E7AB
:10085000A54203DD3B8823443B80DAE7B4F5006F13
:1008600020DA3B886BB1FFF77FFF06F081FB10B900
:10087000FFF796FFF5E706F095FC0146104806F0F5
:10088000E2FD019B0A4832464FF400616CF04EF8DD
:10089000041E00DCFEE7094A3C800023A8F8003073
:1008A0001380B6E707483146CFE700BF200E00208F
:1008B0001E060020B53607001E0E00201C06002074
:1008C000D6360700EF3607002DE9F843184E194FCA
:1008D0000D464FF0000845B33488B7F800E01649DC
:1008E000C4F50064A4B2AC4228BF2C4600EB040956
:1008F00048450BD0338810F801CB0EEB0302C2F34E
:100900000A02013301F802C03380F1E72D1BADB2BA
:100910004444FFF729FF1FFA84F825B106F028FBAD
:1009200018B9FFF73DFF4846D5E74046BDE8F883D4
:10093000200E00201E0E00201E060020F8B52A4FB3
:100940002A4C05464618AE424CD92B780D2B26D0A2
:1009500011D8082B11D00A2B1DD02388B3F5FF7FA7
:1009600030D801212846FFF7AFFF23885A1C228088
:1009700029781F4A0DE07F2BEFD1238813B3032181
:100980001C48FFF7A1FF2388194A013B9BB2238033
:100990000021D15416E0184B1B780D2B12D00221E8
:1009A0003846FFF791FF238811490022581ECA5488
:1009B000944601445BB902B123800D4801F0BAFCB2
:1009C000002323800C4B15F8012B1A70BBE7087825
:1009D0000A2801D00D28EED1013B01F801C99BB2D4
:1009E0000122E7E7F8BD00BF0C3707001A06002018
:1009F0001A0400200937070019040020FFF7D0BEB1
:100A000007B50A49019000230B8009490B80094969
:100A10000B8009490B8006F0ABF9019A0749104693
:100A200003B05DF804EB01F083BC00BF1A060020A0
:100A30001E0E0020200E00201C060020CD07000006
:100A4000F0B5E5B004A9054606F09CFB24A904A86E
:100A500006F06BFB8022002104A867F0B1FF0123A0
:100A6000114A8DF88C308DF88B30104B1A926A46F3
:100A7000164603F1100718685968344603C4083352
:100A8000BB422646F7D10FCA0CAC84E80F00012305
:100A900024A904A88DF8863006F05BFB24A928461B
:100AA00006F0FFFA65B0F0BDCDAB1A000E370700B7
:100AB000F0B5054697B0084614460E4606F0CEFC43
:100AC0001323014607AA304606F0CCFC9DF81C30E3
:100AD0000093E3696169A2692069174FFFF7AEFDD2
:100AE00003AC2622387000210CA867F069FF21466C
:100AF000124806F0D0FB94E80F0010AE86E80F0015
:100B000040F2BC4300212846ADF8523007F040F8CF
:100B1000044670B10122394606F0A2FC30B90849FA
:100B20000CAB2246284607F065F810B1204606F0C7
:100B30008FFC17B0F0BD00BF220E00201E3707004B
:100B4000240E002070470000F0B5204F87B0054606
:100B50000E463146284605F0BDFE06F025FB04464C
:100B6000FFF74EFF2046FFF76BFF0121204606F0FE
:100B700037FB34220021384667F022FF1022002183
:100B800001A867F01DFF40F2BC43114AADF81430D4
:100B900039462346204607F009F83946012301AAC1
:100BA000204607F01DF80121204606F06CFE05F0F6
:100BB000BBFE18B1204606F003FBCAE7204606F04C
:100BC000CFFC204605F0B6FEF1E700BF240E002062
:100BD000B10A000008B5034A0349083004F02DFDAE
:100BE000002008BD263707001B3A070010B50C6827
:100BF00024B9806806F0E6FA204610BD2320FCE701
:100C0000803002F08BBA00002DE9FF410D680446E8
:100C10000E4685B908306549039004F00EFD64491D
:100C2000039804F00AFD6349039804F006FD284682
:100C300004B0BDE8F0815E49304623F064F9002835
:100C400043D07368002B32D154F8080F5A4EDFF8A6
:100C50008C8106F0D4FB594902680546204604F011
:100C6000ECFC10273368EB5800937368424604216C
:100C7000204604F0FFFC013F06F10806F2D16A6C41
:100C80004F49504EDFF85481204604F0D6FC10271F
:100C90003368EB580093736842460421204604F001
:100CA000E9FC013F06F10806F2D10025BFE74649FD
:100CB000301D23F028F908B90725B8E7B568002DDD
:100CC000FAD1A06806F09FFBB1E73A49304623F01D
:100CD0001AF900283FD0736883BB54F8080F3B4DC6
:100CE000DFF8FC8006F005FE092706462B686A68D7
:100CF000F35A4146204604F0A0FC013F05F10805E7
:100D0000F4D1334FDFF8DC8005257A684146204670
:100D100004F0D4FB57F8083B3344D3E900232046C2
:100D200004F018FC013DF0D120462A4904F0C6FB2E
:100D3000D6E90E23204604F00DFC78E72249301D49
:100D400023F0E1F80028B7D0B568002DB4D1A06831
:100D500006F0DDFD6BE71549304623F0D4F8002896
:100D6000AAD07368A3B954F8080F1B4DDFF86C8044
:100D700006F0B4FD042607462B686A68FB58414616
:100D8000204604F05AFC013E05F10805F4D18CE739
:100D90000D49301D23F0B7F800288DD0B568002D1F
:100DA0008AD1A06806F09EFD41E700BFA23C070083
:100DB0002F3707003337070084490700373707000C
:100DC0004C37070004490700775D07009C4807007F
:100DD000044A070070370700E4480700443707005B
:100DE000593707006037070008B5806806F0F2F948
:100DF000002008BD70B50E6804460D468EB954F843
:100E0000080F06F0F9F9054628B120460F4904F00D
:100E100014FC304670BD20460D4904F00EFC2846F7
:100E2000F8E70A49284623F06EF8064628B1012162
:100E3000A068BDE8704006F0D3B90549284623F004
:100E400062F808B13146F3E70720E3E7853707008A
:100E50008837070030B585B0044602A9806806F0DF
:100E6000E8FC0546F0B904F10800029A0F49019028
:100E700004F0E3FB9DF80C200D49019804F0DDFB24
:100E80009DF80D200B49019804F0D7FB9DF80E202A
:100E90000949019804F0D1FB9DF80F2007490198FA
:100EA00004F0CBFB284605B030BD00BF8D370700EE
:100EB0009F370700B4370700AD370700C537070075
:100EC000383003F0ABB800F5EA50103003F01EB92B
:100ED0000B6837B50546084683B9A86805F10804CC
:100EE00006F068FA10B1A86805F076F901462046C8
:100EF00004F0B4FB0024204603B030BD0DF107011F
:100F000004F032FC04460028F5D19DF807201AB9F8
:100F1000A868114606F047FA9DF80710A86806F081
:100F200050FA04460028E6D19DF80730002BE2D0A5
:100F30000249A8682A4606F036FADCE74920000094
:100F400070B5044680680E4610F096FD054606F022
:100F500043F985420CD00849304622F0D4FF48B10D
:100F600004F1080005492A4604F067FB002070BD23
:100F70000C20FCE70720FAE7593807001B3A070066
:100F800010B5044654F8080F06F06EFC03490246FB
:100F9000204604F052FB002010BD00BFCE3A0700EF
:100FA000024B034A083004F02FBC00BF69790000EF
:100FB0005F79000010B500F10804806806F075FC48
:100FC000044A0549002818BF1146204604F035FBA5
:100FD000002010BDDA370700DF37070070B50E6854
:100FE00004460D4666B954F8080F06F01BFC06F0DF
:100FF0001EFC18490246204604F01FFB304670BD17
:101000001549284622F07FFF20B1A068BDE8704056
:1010100006F0F9BB1149284622F075FF20B1A068FF
:10102000BDE8704006F0F4BB0D49284622F06BFF86
:1010300020B1A068BDE8704006F0E6BC094928462A
:1010400022F061FF20B1A068BDE8704006F0EEBC60
:101050000720D4E71B3A0700E5370700EE37070003
:10106000F4370700FB370700303002F0FDBC883052
:1010700003F0C8BB403004F053B9000038B50C6829
:10108000054608464CB906F0A7F80949024605F19D
:10109000080004F0D2FA002038BD064922F033FFE0
:1010A00018B105494FF4C972F1E72320F4E700BFF6
:1010B0001B3A070002380700364A070038B50C46CD
:1010C00005460949204622F01EFF58B164684CB914
:1010D00006F0B7F90549024605F1080004F0ADFA3B
:1010E000204638BD0720FCE706380700AC6907003A
:1010F00013B50C687CB908300849019004F0DEF99A
:101100000749019804F0DAF90198064904F095FAC4
:10111000204602B010BD2320FBE700BF0C380700BB
:101120000E380700956207002DE9F0410B68044670
:1011300094B008467BBB54F8080F1C4EDFF8808043
:1011400002AF394606F096F9BDF808201849204646
:1011500004F073FABDF80A201649204604F06DFA2F
:10116000BDF80C201449204604F067FA08253368BE
:10117000FA1820465168019152880092FB5A726811
:10118000414604F05AFA013D06F10806EFD100206D
:1011900014B0BDE8F081094922F0B5FE18B1A0688D
:1011A00006F06AF9F3E70720F2E700BFF44607000C
:1011B000133807001D38070026380700775D070041
:1011C0003338070010B5044608460A4922F09BFE52
:1011D00030B10022A0681146BDE8104006F09CBB6B
:1011E0000549A068224606F097FB002808BF242086
:1011F00010BD00BF41380700FD20000038B50D6864
:101200005DB9044654F8080F05F0D0FF04490246C2
:10121000204604F012FA284638BD0720FCE700BF3C
:101220009B37070038B50D685DB9044654F8080FC0
:1012300006F012FB04490246204604F0FEF9284657
:1012400038BD2320FCE700BF9B3707000B6837B58C
:1012500005460C469BB980680DF1060106F0E9F8D9
:10126000044648B9BDF806209DF806300D49120A1B
:1012700005F1080004F0E1F9204603B030BD08464E
:1012800022F03AFE02280BD12368A8681A78597810
:1012900001EB022189B203B0BDE8304006F0C4B8CA
:1012A0000724E9E747380700F8B50E460546124916
:1012B000304622F028FE074628B10121A868BDE883
:1012C000F84006F0E0BA0D49304622F01CFE044614
:1012D00008B13946F2E70A49304622F014FE48B117
:1012E00006F0E1FA0749024605F1080004F0A5F905
:1012F0002046F8BD2320FCE7596707004C3807005B
:1013000059380700364A070030B50D68044687B0E3
:1013100008466DB954F8080F1822694605F057FFC2
:101320000B496A46204604F088F9002007B030BD1A
:10133000084922F0E8FD48B154F8080F05F044FFD1
:1013400002460B46204604F005F9EEE70720EDE7DC
:101350001B3A07009D4E070037B50D686DB904466E
:10136000694654F8080F05F0DBFF2046082269465D
:1013700004F0D4F8284603B030BD0720FBE7096825
:10138000006868F031B9000038B505460C4641B92F
:101390000068904704490246284604F04EF920466A
:1013A00038BD0720FCE700BF1B3A070038B50C46E4
:1013B00005461249204622F0A6FD38B1104A616860
:1013C00005F10800BDE83840FFF7DEBF0D492046B3
:1013D00022F099FD08B10C4AF1E70C49204622F0B1
:1013E00092FD08B10A4AEAE70A49204622F08BFD3D
:1013F00008B1094AE3E7072038BD00BF2DA7070061
:101400002975000051380700317500005738070072
:1014100039750000613807004175000038B5054690
:101420000C4641B90068904704490246284604F03A
:1014300004F9204638BD0720FCE700BF364A070004
:101440002DE9F0430D6895B004460E468DBB8068CB
:10145000DFF8908006F074FAA9460646AFB2BE42A5
:1014600035D9A068ADF80E9008AA394606F0FCFA06
:10147000E8B99DF84930C3F3C0021B0717D4ADF893
:101480000E20A06804AB0DF10E02394606F0F1FA09
:1014900068B904F1080341461846BDF838200193A5
:1014A00004F00CF8019804A904F070F8E9E701359C
:1014B000D4E70A49304622F026FD60B1084A716837
:1014C00004F1080015B0BDE8F043FFF7A7BF002006
:1014D00015B0BDE8F0832320FAE700BFAA3C07005F
:1014E000557900006838070070B50C6886B005466D
:1014F0000E4664B955F8080F02A906F003FB28460A
:10150000102202A904F00AF8204606B070BD4B680C
:101510005BB9102202A9204622F0D4FC0028F4D1A5
:10152000A86802A906F0F3FAEFE70B49304622F06B
:10153000EAFC70B1A868746806F01CF90190A8680C
:1015400006F0A6F80199024602AB204605F0CCFD54
:10155000E4E70720D9E700BF6F38070073B50C68D0
:1015600005460E463CB10DF10701204622F091FCE4
:1015700060B102B070BD55F8080F06F0E2FA0849F4
:101580000246284604F059F82046F2E773682BB962
:101590009DF90710A86806F0D9FAEAE70720E8E7FE
:1015A000AC690700F0B5044600F10805134B144A76
:1015B000144F154E8DB00221284604F095F8A0680E
:1015C00006F029FB0446B4B120463022694605F0F6
:1015D00069FE6A463946284603F070FF04F112009E
:1015E0003022694605F05EFE6A463146284604F020
:1015F00024F8246BE7E720460DB0F0BD70470700E4
:1016000068470700723807007B38070030B50C6860
:1016100085B0054664B955F8080F694606F077F8B5
:1016200028461022694603F079FF204605B030BDF8
:1016300010226946204622F045FC0028F6D1A86811
:10164000694606F069F8F1E730B50C4687B0054603
:101650002149204622F057FCA0B1201D0DF11701B1
:1016600004F082F8044638B99DF817303BB11B49A5
:101670002A46A86806F06FFA204607B030BD024639
:101680000146F6E7206820B30DF1170122F0BAFBFE
:1016900004460028F0D19DF817001F2817D8012113
:1016A00081400F4B01930023A868029500934FF6E9
:1016B000FF7206F0FFF804460028DDD1094B0A4A04
:1016C000072105F1080004F00FF82424D4E70724CB
:1016D000D2E70146E5E700BF85380700892300000F
:1016E0002D240000284807000C4807002DE9F74387
:1016F0000D680446002D37D100F10806284B294A11
:10170000294FDFF8AC80DFF8B0900321304603F0BA
:10171000EBFFA068E9B206F025FA00B3A90289B28E
:101720000DF10303A068ADF804100DF1060206F0F8
:1017300020FA39462A46304603F0C0FEBDF806209E
:101740004FF6FE739A421BBF9DF803301749184AA3
:10175000920A04BF43464946304603F06EFF013506
:101760003F2DD6D1002517E0284601A922F05BFBCA
:10177000054688B954F8080FBDF804100DF10303AD
:101780000DF1060206F0F5F99DF80330BDF80620CC
:101790000849204603F051FF284603B0BDE8F08316
:1017A0006447070058470700913807009A38070038
:1017B0001FA80700B2380700A63807007FB50C46FF
:1017C00000232349ADF80E300546204622F09BFB4E
:1017D000064610B1606800BB0434206838B30DF1D0
:1017E0000D0122F00FFB00BB9DF80D001F281BD838
:1017F0000124844005F10800DEB1164B164A02218F
:1018000003F072FF154BBDF80E20A8680095214625
:1018100005F005FE48B9242007E00DF10E0122F085
:1018200002FB10B90834D8E7072004B070BD0446A5
:10183000E0E70B4B0B4A052103F056FF0A4BBDF8BE
:101840000E20A8680095214605F0E4FDE2E700BF00
:10185000C138070055470700484707002521000009
:1018600050470700344707002D24000037B50C68A7
:10187000054674B955F8080F05F08AFC0E494FF477
:101880007A72B0FBF2F2284603F0D7FE204603B08E
:1018900030BD4B686BB901A9204622F063FB0028DC
:1018A000F5D1019BA8684FF47A71594305F075FC96
:1018B000EDE70720EBE700BF9B37070037B505468C
:1018C00008680DF1070170B9A86804F0F1FC04463E
:1018D00030B99DF907200A4905F1080003F0ADFE73
:1018E000204603B030BD22F0D4FA04460028F7D1D8
:1018F0009DF90710A86804F0EFFC0446F0E700BF6C
:10190000D13807000B6837B505460C4683B98068A7
:101910000DF1070104F0F8FC044630B99DF90720E9
:10192000144905F1080003F088FE204603B030BDDD
:101930001149204622F0E7FAC8B160680DF10701AD
:1019400048B9A86804F0E0FC04460028EDD19DF9F0
:1019500007200A49E5E722F09CFA04460028E4D172
:101960009DF90710A86804F0D9FC0446DDE70724B8
:10197000DBE700BFC8380700D8380700AC690700AC
:1019800037B5054608680DF1070170B9A86804F07D
:1019900085FC044630B99DF907200A4905F1080085
:1019A00003F04BFE204603B030BD22F072FA04462D
:1019B0000028F7D19DF90710A86804F045FF0446F8
:1019C000F0E700BFD1380700F0B50B6885B00546D9
:1019D0000E4663B955F8080F05F027FC0446002CA5
:1019E00052D02146284603F0D1FD2469F7E7284963
:1019F000304622F088FA50B17068694622F058FAF1
:101A000018B9A868694605F015FC05B0F0BD214974
:101A1000304622F078FA50B17068694622F048FAF0
:101A20000028F2D1A868694605F009FCEDE71A49DB
:101A3000304622F068FA074648B1184B184A311D63
:101A400005F1080005B0BDE8F04003F0CBBE154934
:101A5000304622F058FA044648B155F8080F05F010
:101A600081FE0146284603F091FD3846CDE70E4938
:101A7000304622F048FA48B155F8080F05F076FED6
:101A80000146284603F082FD2046BEE72320BCE73E
:101A9000E038070053380700E438070053720000AD
:101AA00049720000F0380700F638070073B50C687B
:101AB00005460E4634B101A9204622F053FA60B122
:101AC00002B070BD55F8080F05F04FFC07490246FB
:101AD000284603F0B2FD2046F2E7736823B9019966
:101AE000A86805F047FCEBE70720E9E79B3707000C
:101AF00037B50C6805465CB955F8080F05F0C8FD08
:101B000008220146284603F009FD204603B030BDF7
:101B100008226946204622F0D5F90028F6D1A868A7
:101B2000694605F0B9FDF1E737B50C6805465CB9C3
:101B300055F8080F05F0DBFB08220146284603F0A4
:101B4000EDFC204603B030BD08226946204622F055
:101B5000B9F90028F6D1A868694605F0CCFBF1E791
:101B600030B50B68044687B0084683BBA06801A95E
:101B700005F07FFE054638BB08341B49204603F0BC
:101B80009DFC082201A9204603F0C8FCBDF80C20EA
:101B90001649204603F051FD9DF8112014492046B6
:101BA00003F04BFD9DF812201249204603F045FD3D
:101BB0009DF813201049204603F03FFD9DF81520A5
:101BC0000E49204603F039FD284607B030BD0C49C8
:101BD00022F099F928B1A06807B0BDE8304005F0BF
:101BE0004DBE0725F0E700BFFC38070007390700A6
:101BF000103907002439070039390700B9370700C1
:101C000042390700024B186800B9FEE7704700BF71
:101C1000580E0020037813F0010F0B461CBF7222F0
:101C200003F8012B0278920744BF642203F8012BCA
:101C30000278520744BF6E2203F8012B8B4204BF87
:101C40002D2203F8012B00221A700846704700006D
:101C50007FB50C68002305460E468DF804308CB91C
:101C600055F8080F05F032FD03A98DF8080002A809
:101C7000FFF7D0FF1E490246284603F0DEFC20464F
:101C800004B070BD1B49304622F03DF938BB3368C3
:101C90000146013B044613F8012F5AB16E2A05D0C4
:101CA000722A05D0642A20D10124F4E70121F2E749
:101CB0000120F0E728B19DF8043043F001038DF8CE
:101CC00004302CB19DF8043043F002038DF8043049
:101CD00029B19DF8043043F004038DF804309DF8D9
:101CE0000410A86805F002FDCAE70720C8E700BF96
:101CF0001B3A07001FA80700F0B50446A1B00D4627
:101D00000026227DF3B29A421BD92269284652F856
:101D10003310DF0022F0F7F801360028F1D06946D1
:101D2000284622F0F9F82369A4693B4428465E68F6
:101D300022F0FDF80138C1B201AA2046B04721B017
:101D4000F0BD2320FBE770B5064600680C4608B9D5
:101D5000072070BD2F2167F0D3FB054688B104F141
:101D60000801013022F04EF80028F2D1227A013A1F
:101D70003F2AEDD8287030682146BDE8704021F038
:101D8000EFBF1720E5E70000013002289ABF024BA1
:101D900053F82000014870471C430700F9A10700D1
:101DA0002DE9F341804608680F4616461D46C0B12E
:101DB000114622F07DF800232B70044668B1386884
:101DC00001A922F07AF840B9324601A9404605F04F
:101DD0005BFB044608B901232B70204602B0BDE826
:101DE000F0810724F9E7000038B50C4600F108053A
:101DF000284603F0B9FB228A1D49284603F05EFB02
:101E0000A37C1C49032B96BF1B4A1C4A52F8232073
:101E1000284603F053FBE27C194902F001022846F0
:101E200003F04CFBA37CE3B9E37C5B0714D51549B5
:101E30006269284603F042FB04F11801284603F0CA
:101E400093FBA37C032B07D1E37C628D0E49C3F384
:101E50004003284603F032FB2846BDE8384003F033
:101E60003BBB228D0949284603F028FBE9E700BF68
:101E7000CD3A07001A3A0700A44607006A5F070038
:101E8000523907005F3907007F39070073390700AF
:101E900010B500238EB0CDE901330446A06801AA35
:101EA00003A905F02AFE20B903A92046FFF79CFFED
:101EB000F4E700200EB010BD03289ABF024B53F880
:101EC00020000248704700BFB44607006A5F070061
:101ED000F0B50E4689B041490546304622F013F868
:101EE000074600B10436336813BB55F8080F3C4E63
:101EF00005F087F90446002C51D02146284603F00E
:101F000033FB87B1607CFFF7D7FFA17C237CC1F353
:101F100040010191A17C01F0010102460091284697
:101F2000314603F0CBFA284603F0D6FA6469E2E7BB
:101F30002C49304621F0E7FF90B1706802A921F0EA
:101F4000B7FF58B9069BA8689B0C9B0443F4403329
:101F500043F4507302A9069305F05DF909B0F0BD92
:101F60002149304621F0CFFF044650B1706802A9E4
:101F700021F09EFF0028F1D1A86802A905F050F9D0
:101F8000ECE71A49304621F0BEFF074648B155F844
:101F9000080F05F0E3FB0146284603F0F7FA204658
:101FA000DCE71349304621F0AEFF044648B155F84E
:101FB000080F05F0CBFB0146284603F0E7FA384648
:101FC000CCE70C49304621F09EFF20B155F8080FB0
:101FD00005F0C0FBDFE72320C0E700BF9A39070008
:101FE0009D390700E038070053380700C63907005D
:101FF000D0390700D539070030B597B00B6800938A
:102000008B88ADF804300D490D4B0E4D002A08BFEA
:102010000B4600F10804029320460023ADF8563029
:1020200003F05AFA684605F011FA28B903AA2946BE
:10203000204603F002FBF5E717B030BDDE3907009C
:10204000DB3907001B3A070013460A4601461846CB
:10205000FFF7D2BF024A0349083003F02FBA00BF8E
:10206000284307001B3A0700437F37B5044673B186
:1020700081B30846019105F095F8019A1649034687
:1020800004F1080003B0BDE8304003F0D6BA037F86
:1020900003B9FEE724291DD000F1080579B90F49DD
:1020A000284603F0CAFA002304F12000237706F043
:1020B00027FF204603B0BDE83040FFF7CBBF0846FE
:1020C000019105F06FF8019A03490346284603F091
:1020D000B4FAE8E703B030BDE1390700EE39070094
:1020E00010B505490446083003F0A7FA2046002140
:1020F000BDE81040FFF7B8BFF3390700FFF7F0BFA6
:1021000010B419B95DF8044BFFF7AEBF91F9013077
:102110000A785DF8044B0249083003F08EBA00BF1C
:10212000063A07000B4601461846FFF7E9BF0000D4
:1021300070B504460D4611461A4603F06FF9234662
:102140000026164AA683C4E9025443F8202F2946E4
:10215000C4E90A342246C4E90C5404F1380001F001
:1021600039FD2246294604F1400003F005F82246D5
:102170002946C4E9205404F1880002F028FB04F544
:10218000EA5022462946103001F08EFF2046266193
:102190006661A661FFF75EFF204670BDC7210000A3
:1021A00010B5054C13460A4601462046FFF7C0FF0E
:1021B000024B1C6010BD00BF600E0020580E0020B6
:1021C0000021FFF751BFC068FFF7FABF2DE9FF41BB
:1021D0000B680393234B00930C2305460E464A22BB
:1021E00021490DEB030005F0E4FD044668B1826867
:1021F0006368511005EB6200D20744BF6A58D35898
:10220000311D04B0BDE8F04118471849304621F0AF
:102210007AFEE0B1DFF85080154F05F1080658F856
:10222000242039463046033403F007FADE2CF6D179
:102230000F4F00242A7DE3B29A420FD92A6939460A
:1022400052F83320304603F0F8F90134F2E7314612
:10225000284604B0BDE8F041FFF74EBD002004B0B1
:10226000BDE8F0817F1300002C430700143A0700FB
:102270001B3A070030B50446A3B00D4601B9FEE78E
:10228000437F5BB1202201A9284621F015FDA0B1B2
:1022900001462046FFF7E8FE23B030BD037F002B48
:1022A000FAD1012303774FF4C071284606F0A1FC50
:1022B000B0F5C07FE6D30620EAE7019B23B9237778
:1022C0002046FFF7C7FEE7E701A92046FFF77EFF9C
:1022D0000028DDD1019B002BDAD1237F002BEFD02A
:1022E000DAE70000F0B501230F4E104F437789B0B5
:1022F0000446142556F8041B1D22684668F08EFC1F
:1023000000236A46394604F108008DF81D3003F0B9
:1023100094F969462046FFF7ADFF013DEAD1284612
:10232000657709B0F0BD00BFBC470700193A070048
:10233000FFF736BF07B50190FFF764FC019903B0C2
:102340005DF804EBFFF796BF082203F0D5B8000054
:1023500013B50C4608300A49019003F0AFF8019814
:102360002146FFF7F1FF227A06490198C2F30013D4
:1023700002F00F0202B0BDE8104003F05EB900BFEA
:102380001E3A0700383A07000B4601461846FFF789
:10239000DFBF000038B504460D4619B9BDE8384026
:1023A000FFF762BE91F839309B0604F1080412D59C
:1023B00001F108022046164903F080F8154920462D
:1023C00003F07CF805F119012046FFF7BDFF124923
:1023D000204603F073F86A8E1049204603F06EF829
:1023E00029462046FFF7B0FF95F836200C492046D5
:1023F00003F064F895F937200A49204603F05EF8A7
:1024000095F8382008492046BDE8384003F015B952
:102410004F3A07009738070074A50700583A07009D
:10242000623A07006A3A0700713A07000B46014614
:102430001846FFF7AFBF00002DE9F04F0C468FB0F4
:1024400085490546204621F05EFD064600287ED1DE
:102450008249204621F057FD00287FD120680DF1E8
:10246000020121F0E0FC064600286CD1BDF8021004
:10247000A86802AA05F0F3FA0646002863D10835D9
:10248000BDF822207649284603F0D7F8BDF8202071
:102490007449284603F0D1F82846734903F00EF832
:1024A00008220DEB0201284603F038F89DF8312090
:1024B0009DF80030C2F3000161F30003C2F3400253
:1024C00062F3410362F3820301A968468DF800308C
:1024D000FFF7A0FB65490246284603F0AEF89DF8D9
:1024E000312063492846C2F3001203F0A6F89DF894
:1024F00024206049284603F0A0F8049A5E49284643
:1025000003F09BF8059A5D49284603F096F89DF87C
:1025100025205B49284603F090F89DF9262059496B
:10252000284603F08AF8BDF82E205749284603F0C4
:1025300084F808E04946204602F0C0FF8AE02046C1
:1025400002F0CAFF002630460FB0BDE8F08F4F4BB7
:102550004F4A0E2105F1080003F0C6F8A868DFF81D
:102560005491DFF854A1DFF854B105F0E9F90027E0
:102570008046B9B2414505F10804E0D2A86802AA34
:1025800005F072FA002865D19DF831301B0761D43F
:10259000BDF82220002ECDD05146204602F08EFFFD
:1025A000BDF820205946204602F088FF049A394998
:1025B000204602F083FF059A3649204602F07EFF4E
:1025C0009DF825203449204602F078FF9DF824200C
:1025D0003249204602F072FF9DF83120304902F066
:1025E0000102204602F06AFF9DF831202C49C2F317
:1025F0004002204602F062FF9DF831202849C2F3D4
:102600008002204602F05AFF9DF8302025492046DE
:1026100002F054FF9DF831202349C2F300122046F6
:1026200002F04CFFBDF82C201B49204602F046FF6B
:10263000BDF82E201849204602F040FF1B492046D5
:1026400002F03CFF02A92046FFF77EFE1849204613
:1026500002F0F3FF01378CE7453F0700793A0700A6
:10266000BB3A0700C83A0700FC380700D33A070016
:10267000DC3A0700F23A0700FF3A07003939070051
:10268000103907000C3B0700153B0700AC4707005B
:10269000744707008F3A0700983A07009F3A0700EF
:1026A000A63A0700AB3A0700B03A07009738070090
:1026B000113A0700B73A07007E3A0700853A07004B
:1026C0002DE9F0430C4693B000239249ADF8063053
:1026D0000546204621F017FC0646002840F00D81F3
:1026E0008D49204621F00FFC002840F00D818B49D8
:1026F000204621F008FC0646002840F0A9808849C1
:10270000204621F000FC0746002800F0F4808249B2
:10271000201D21F0F8FB38B9824B834A042105F1D2
:10272000080002F0E1FF3E46DFF848827F4FDFF805
:102730004892A86808AA0DF1060105F06EF8002875
:1027400040F08280BDF8302005F10804002E00F032
:10275000C3804946204602F0B1FE08A92046FFF793
:10276000F3FD0A9802A9152205F0DBF802AA20461B
:102770006F4902F0A3FE0B9802A9152205F0D1F8CB
:102780006C4902AA204602F058FFD2E7BDF830207B
:102790004946204602F092FE2C4608AA54F8080F3B
:1027A0000DF1060105F039F800284AD1002EEDD0D0
:1027B0009DF8463013F0080F14BF432252224146C1
:1027C000204602F07BFEBDF830203946204602F05C
:1027D00075FE0A9A5849204602F070FE9DF93D2088
:1027E0005649204602F06AFE9DF93E205449204693
:1027F00002F064FE9DF846205249204602F0010294
:1028000002F05CFE9DF846204E492046C2F340028D
:1028100002F054FE9DF846204A49C2F38002204649
:1028200002F04CFE2046484902F048FE08A9204626
:10283000FFF78AFDBDF844204449204602F0FDFE22
:10284000AAE7204602F048FE002013B0BDE8F0835E
:1028500005F108043E4B3F4ADFF81C813E4F3F4ED6
:102860000721204602F040FFA86808AA0DF10601E2
:1028700004F0D3FF0028E7D1BDF8302041462046C0
:1028800002F01CFE08A92046FFF75EFD02A9BDF874
:10289000400002F0F1FD39460246204602F00EFEED
:1028A00002A9BDF8420002F0E7FD3146024620468B
:1028B00002F004FE9DF93D202949204602F0FEFD6C
:1028C0009DF93E201D49204602F0F8FD0A9A25494F
:1028D000204602F0B2FEC7E74146204602F0EEFD78
:1028E00008A92046FFF730FDDDE90A2339462046D6
:1028F00002F0A3FE1DE70720A7E71B4B1B4A0A2196
:1029000005F1080002F0F0FEDFF86890DFF86C8057
:10291000174F41E7453F0700793A07002E3B070074
:10292000923B07008448070030480700AD3B070092
:102930009B3B0700A33B0700423B07004A3B0700C5
:10294000513B0700A63A070097380700583B07009D
:1029500092480700684807006D3B0700783B070076
:10296000823B0700893B0700884807004048070072
:10297000853A0700873A0700613B07003A3B0700AA
:102980002DE9F04F0C4689B06E490546204621F0EE
:10299000BAFA074600286ED16B49204621F0B3FAF7
:1029A00000286FD120680DF10A0121F03CFA06469B
:1029B000002840F0C280BDF80A10A86803AA05F0FC
:1029C00097F80646002840F0B8809DF81C205F4923
:1029D000083502F00102284602F02FFE9DF81C3057
:1029E000DA0740F1AA809DF816205949284602F0DE
:1029F00024FEBDF814205749284602F01EFE9DF81B
:102A0000172055499202284602F017FE9DF81C2017
:102A10005249C2F34002284602F00FFE9DF81C30D6
:102A20009B0740F18A8028464D4902F047FD03A9E3
:102A30002846082202F072FD9DF8182049492846D0
:102A400002F0FBFD9DF819204749284602F0F5FDEC
:102A50009DF81A204549284602F0EFFD9DF81B20FD
:102A60004349284602F0E9FD67E01A4649462046F8
:102A700002F024FD59E03F4B3F4A092105F10800CF
:102A800002F032FEA868DFF81091DFF810A1DFF83D
:102A900010B105F02BF8002680462C46F3B254F80E
:102AA000080F019303AA194605F022F800283CD12B
:102AB000019B002FD9D09DF816205146204602F0E8
:102AC000FDFCBDF814205946204602F0F7FC9DF8A5
:102AD00017202A49204602F0F1FC9DF818202849C9
:102AE000204602F0EBFC9DF819202649204602F012
:102AF000E5FC9DF81A202449204602F0DFFC9DF8F1
:102B00001B202249204602F0D9FC2149204602F030
:102B1000D5FC03A92046FFF717FC9DF81C201D4992
:102B2000C2F34002204602F088FD0136F3B243456D
:102B3000B3D9204602F0D0FC0026304609B0BDE8EB
:102B4000F08F00BF453F0700793A0700D93B0700E7
:102B5000CC370700C83A0700E33B0700F23B070009
:102B6000FC380700FB3B0700103907002439070039
:102B7000043C0700E8460700C4460700C43B0700C2
:102B8000CB3B0700983A0700D23B07007E3A07008C
:102B9000973807000B3A0700B73A0700633A070077
:102BA000853A070070B50C46096806461D46FEF7D3
:102BB000EBFB48B1216831B1636823B930682B461B
:102BC000BDE870401847072070BD000008B5034AF3
:102BD000034B0830FFF7E6FF08BD00BFBD770000DC
:102BE000C577000008B5034A034B0830FFF7DAFF4A
:102BF00008BD00BF757700007D770000F7B50C6851
:102C000005460E461F464CB120460DF1060121F047
:102C10000AF9044650B1204603B0F0BD0068904761
:102C200007490246284602F008FDF4E7736823B915
:102C3000BDF806102868B847EDE70724EBE700BFAA
:102C4000364A0700F8B50E4605461A49304621F0C7
:102C50005AF938B1184B194A311D05F10800FFF730
:102C6000CDFFF8BD1649304621F04DF9044610B1AC
:102C7000144B154AF0E71549304621F044F908B9DC
:102C80000720EEE7776857B955F8080F04F0FBF90D
:102C90000F490246284602F0D0FC3846E1E70D49CC
:102CA000301D21F030F90028EAD0A86804F0EFF9CF
:102CB0002046D6E70C3C07007F70000077700000CC
:102CC000193C07006F70000067700000223C07008D
:102CD000364A0700775D0700F7B50C6805460E46D3
:102CE0001F4644B1204601A921F03CF9044650B1E9
:102CF000204603B0F0BD00689047074902462846C9
:102D000002F09BFCF4E773681BB901992868B84787
:102D1000EEE70724ECE700BF9B37070008B5034A3E
:102D2000034B0830FFF7D8FF08BD00BF7D760000D9
:102D30008776000008B5034A034B0830FFF7CCFF45
:102D400008BD00BFA7790000B179000038B50C4676
:102D500005460E49204621F0D6F838B10C4B0D4AF5
:102D6000211D05F10800FFF7B7FF38BD0A492046CD
:102D700021F0C9F838B1094B094A211D05F10800B5
:102D8000FFF73CFFF1E70720EFE700BF263C070015
:102D9000E7770000DD7700002E3C0700FD7700009C
:102DA000F3770000F7B50D46096807461E46FEF7A3
:102DB00035FB044660B128680DF1070121F022F8C7
:102DC000044628B96B6833B99DF807103868B047D6
:102DD000204603B0F0BD0724FAE7000008B5034A17
:102DE000034B0830FFF7DEFF08BD00BF7D79000010
:102DF0008779000008B5034A034B0830FFF7D2FF7C
:102E000008BD00BFBB790000C579000008B5034AC2
:102E1000034B0830FFF7C6FF08BD00BF377A00003C
:102E2000417A000008B5034A034B0830FFF7BAFFA8
:102E300008BD00BF4B7A0000557A000008B5034A70
:102E4000034B0830FFF7AEFF08BD00BFCF7900008D
:102E5000D979000070B50C4605461049204621F08E
:102E600052F8B0B1261D0E49304621F04CF840B161
:102E70000C4B0D4A04F1080105F10800FFF792FF21
:102E800070BD0A49304621F03EF820B1084B094A8E
:102E9000F0E72320F4E70720F2E700BF383C070003
:102EA000423C0700897300007F730000403C07002C
:102EB0009D7300009373000073B50C4606460DF138
:102EC00006012068154620F0AEFF28B963682BB9CB
:102ED000BDF806103068A84702B070BD0720FBE7B8
:102EE00038B50C6800F108054CB9806804F01EFA8A
:102EF00005490246284602F0A0FB204638BD034A99
:102F00002846FFF7D9FFF9E7493C0700377300006F
:102F1000F7B50E4605462149304620F0F4FF38B19A
:102F20001F4A311D05F10800FFF7C6FF03B0F0BDD1
:102F30001C49304620F0E7FF074668B104361A49BD
:102F4000304620F0E0FF20B1A86804F095F9002099
:102F5000ECE7164A3146E5E71549304620F0D3FF45
:102F6000D0B155F8080F0DF1070104F08BF90646B2
:102F700070B13C460F4F9DF80720E3B29A4207D943
:102F800036F813203946284602F098FA0134F2E761
:102F9000284602F0A1FADAE72320C7E7E038070065
:102FA0005D720000503C0700573C07006B72000048
:102FB0005B3C0700B73A070070B50C68164605463B
:102FC0001A4614B1FFF778FF70BD0068B047034997
:102FD0000246284602F031FB2046F5E7364A070054
:102FE00008B5034A034B0830FFF7E6FF08BD00BFF2
:102FF000417900004B79000008B5034A034B0830C3
:10300000FFF7DAFF08BD00BF917900009979000051
:1030100073B50C4606460DF107012068154620F0F1
:10302000F1FE28B963682BB99DF807103068A847EE
:1030300002B070BD0720FBE7F8B50D460646134900
:10304000284620F060FF06F1080748B1B0680EF08E
:103050000BFD02460E49384602F0EFFA0020F8BD9B
:103060000C49284620F04FFF18B1B0680EF000FD63
:10307000EFE7094A29683846FEF7D0F90028EED074
:10308000064A29463846FFF7C3FFE8E75F3C0700DA
:10309000693C07006F3C0700AD720000B77200008A
:1030A00008B5024A0830FFF7B3FF08BD7379000086
:1030B00008B5024A0830FFF7ABFF08BDF7790000FA
:1030C00038B500F108040D46054A09682046FEF7A8
:1030D000A5F920B1034A29462046FFF799FF38BDDC
:1030E000E3790000ED79000038B50C4605460A7A10
:1030F000074902F0A2FA62880649284602F09DFAC2
:10310000626805492846BDE8384002F096BA00BF1B
:103110002C4A0700394A07004B4A07001FB50B68C5
:103120000446E3B90F4902F0C9F9206801A903F088
:1031300095FF78B9204602F0CFF90B49BDF804207D
:10314000204602F07AFA01A92046FFF7CDFF0020C1
:1031500004B010BD0549204602F06FFAF7E72320BE
:10316000F6E700BF5E4A07006B4A07007C4A07008B
:10317000D1E9002302F0EEB9D1E9042302F0EAB963
:10318000B1F85A20014902F058BA00BF364A070088
:1031900001F13002014902F050BA00BF1B3A0700AA
:1031A000B1F85820014902F048BA00BF493C070075
:1031B0000A6F014902F041BA824A07004A6D01498B
:1031C00002F03BBA9B3707000822413102F0A6B952
:1031D0001022203102F0A2B9493102F009BA0B687D
:1031E000186830B104330B60014602F1300003F07F
:1031F0007DBF07207047000008B5FF22002102486C
:1032000065F0DEFB002008BDC02B002010B50C6867
:1032100034B9044991F8FE2002F080F9204610BD2F
:103220000720FCE7C02B002038B50D4604460C49AA
:10323000284620F068FE28B120680A49BDE83840D9
:1032400003F02FBF0849284620F05DFE28B1206812
:103250000449BDE8384003F02EBF072038BD00BF49
:103260008A4A0700C02B00204469070009680068EB
:1032700066F0BAB90968006866F0B6B90B6810461E
:103280001A1D0A6000F141010822186820F01ABED8
:103290000B6810B514461A1D0A60186804F1100175
:1032A00020F05EFD08B92083A07610BD0B68181DC4
:1032B0000860186802F1540120F054BE10225C31FD
:1032C00002F02CB92DE9F0410D4607461B4928684C
:1032D000144620F018FE2B681A1D2A6020B3D3F87C
:1032E0000480B8F1000F27D094F8773093B104F13F
:1032F000300694F8783093B104F1410204F15C0394
:103300003146404603F0F0FE10B92B6804332B60C1
:10331000BDE8F081386804F02DFA0646E9E7386820
:1033200004F0B6F90246E9E704F15C011868BDE86B
:10333000F041102220F0C6BD0720E9E76F380700F2
:103340000B68181D0860186802F1700120F00ABEB1
:103350000B6810B514461A1D0A601868214620F043
:10336000FFFC08B92081A07210BD30B50B6885B094
:1033700015461A1D0A601868694620F099FD044632
:1033800028B96B4603CBC5F84900C5F84D10204657
:1033900005B030BD0B6810461A1D0A6000F120010F
:1033A0001022186820F08EBD0B68181D0860186880
:1033B00002F15A0120F037BD0B68181D086018682B
:1033C00002F1580120F02FBD30B50C46A1B00546E2
:1033D0001F49204620F097FD30B11E49286821B0D2
:1033E000BDE8304003F058BE1B49204620F08BFD5D
:1033F00030B11849286821B0BDE8304003F056BE0E
:103400001649204620F07FFD50B12868694603F038
:10341000B9FE18B90F49684603F087FE21B030BDE8
:103420000F49204620F06FFD78B10A4D6068FE23F9
:103430002A466946ADF8003020F052FD0028EDD153
:10344000BDF8003085F8FE30E8E70720E6E700BF6A
:103450008A4A0700C02B002044690700914A0700F0
:10346000954A070070B50C46E2B00546174920465C
:1034700020F049FD18BB1649204620F044FD18B342
:103480000126FE236068ADF8063022AA0DF1060180
:1034900020F026FD78B9BDF806308DF8863102A9F6
:1034A00022A803F02AFE044628B9286822A946B9B2
:1034B00003F0F7FD00B10446204662B070BD00265F
:1034C000DFE703F0F8FDF5E70724F5E78A4A070090
:1034D0004469070070B51368A2B006460D46019214
:1034E000D3B91E4802A903F008FE044688B96B68E8
:1034F00088336B4413F80C3C5BB1EA68AB6851103D
:10350000D50706EB620048BF725802A948BFD358DE
:103510009847204622B070BD8022002102A865F0A5
:103520004FFA6A692B69511006EB6200D20748BF57
:10353000725801A948BFD35802AA984704460028E8
:10354000E7D16B68054988336B44012203F80C2CE2
:1035500002A803F0FEFD0446DBE700BFC02B0020FD
:1035600038B50C460A882249054601F0A7FFA37822
:10357000D80703D51F49284601F0A0FFA378990773
:1035800003D51D49284601F099FFA3785A0703D5B2
:103590001A49284601F092FFA3781B0703D5184962
:1035A000284601F08BFFA378D80603D51549284695
:1035B00001F084FFA378990603D51349284601F04A
:1035C0007DFFA3785A0603D51049284601F076FFFF
:1035D000E378DB0703D50E49284601F06FFFE27858
:1035E0000C492846C2F34202BDE8384002F025B833
:1035F000B73A0700863C0700983F07006864070059
:10360000EA4D0700B03F0700FF4D07007038070084
:103610007AAF0700354A07006C31FFF7A1BF000001
:1036200073B50023019313680E46186801A9154667
:1036300020F0F9FB044600287FD129684A680B1D59
:103640002B60002A77D0013A12F8013F002B5BD0A3
:10365000722B05D8622B05D8432B3FD0522B4CD070
:1036600007246AE0633B0F2BFAD801A050F823F03F
:10367000D336000061360000E736000061360000F6
:1036800061360000613600006136000061360000DE
:10369000613600006136000061360000BF36000070
:1036A000B1360000F136000061360000C936000076
:1036B0009DF8063043F001038DF80630C4E79DF80D
:1036C000063043F00203F7E79DF8063043F00403A9
:1036D000F2E79DF8063043F00803EDE79DF8063069
:1036E00043F01003E8E79DF8063043F02003E3E7DA
:1036F0009DF8063043F04003DEE79DF8073043F0C5
:1037000001038DF807309FE7886801F108032B60FB
:1037100088B10DF1030120F075FB88B92B689DF885
:1037200003200433072A2B609AD89DF8073062F3F0
:1037300043038DF8073001983060204602B070BD19
:103740000446FAE713460A4603F16C01FFF768BF27
:1037500007B5044B00930E22182304F02AFB03B094
:103760005DF804FB753200002DE9F047A2B0044675
:10377000084602A903F0C1FC064658BBDFF85CA06E
:10378000DFF85C80DFF85C900C27DAF804300193F6
:10379000414601A8FFF7DCFF436888336B440546C8
:1037A00013F80C3C93B1DAF800204946204601F0AA
:1037B00085FEEB685A1013F0010F18BFA25804EBF6
:1037C0006300AB6802A918BFD3589847013F0AF1BC
:1037D000080ADAD1304622B0BDE8F0878C4B0700EA
:1037E000584C07008462070070B5C0B005460E460D
:1037F0000068694603F050FC044630B933683BB9B1
:1038000069462846FFF7B0FF0446204640B070BD29
:103810000649304620F077FB30B19DF8FE2069461E
:10382000284601F07BFEF0E70724EEE73C3F070067
:1038300070B5C0B005460E460068694603F036FC18
:10384000044630B933683BB969462846FFF78CFF18
:103850000446204640B070BD0649304620F053FB78
:1038600030B19DF8FE206946284601F057FEF0E78A
:103870000724EEE73C3F07002DE9F047C4B00E46B1
:1038800004468022002104A865F09AF8334FDFF83F
:10389000D880331D02934FF00009029BD3F800A09B
:1038A000BAF1000F39D0394603A8CDF80CA0FFF7C4
:1038B0004FFF0546C8B14269029B511004EB6200FC
:1038C0000433D20748BF625802932B6902A948BF4C
:1038D000D35804AA984700283BD16B6803F5887336
:1038E0006B44012203F88C2CD7E70298414620F064
:1038F0000AFB002830D0029B1A1D02928022ADF8EC
:103900000C20586824AA03A920F0EAFA08BB029BFD
:103910009DF80C9004330293BFE71149304620F024
:10392000F2FA054668B90F49304620F0ECFA98B132
:10393000CDE9005520684B4624AA04A903F0CFFB2B
:1039400007E0CDE900AA20684B4624AA04A903F0A9
:10395000BCFB44B0BDE8F0870720FAE7584C0700ED
:103960008A4A0700446907003C3F07002DE9F04FF1
:10397000002493B0CDE90344DFF8E490DFF8E4A03D
:10398000059406460D4601F104082746D8F800B014
:10399000BBF1000F3AD02F49CDF808B002A8FFF7CD
:1039A000D7FE58B1426802F148030DEB0302012132
:1039B00002F83C1CC3460BF10408E7E749464046C1
:1039C00020F0A1FA70B12022ADF80820D8F8040048
:1039D0000AAA02A908F1040B20F082FA48B99DF85E
:1039E0000870E8E75146404620F08DFA044618B9C1
:1039F000072013B0BDE8F08FD8F8040006A908F13D
:103A0000040B20F055FA0028D5D0F2E712492846D9
:103A100020F079FA58B130680CB10DF1180BCDF8DF
:103A200000B03B460AAA03A903F04AFBE1E70B49B1
:103A3000284620F068FA0028DAD030680CB10DF181
:103A4000180BCDF800B03B460AAA03A903F042FBCD
:103A5000CFE700BF584C07008A4A070044690700B7
:103A60003C3F0700CDA60700F0B50B6885B00546C2
:103A70000C462BB9224905B0BDE8F040FFF774BEF3
:103A80002049204620F03FFA70B11F4F1F4E0024FE
:103A900057F8242031462846033401F0CEFD1B2C74
:103AA000F6D1002005B0F0BD23681949039303A89F
:103AB000FFF74EFE014630B1221D284605B0BDE895
:103AC000F040FFF707BD23680393124B00930C23CC
:103AD0000DEB03000C49092204F06BF9034668B1B1
:103AE00082685B68511005EB6200D20744BF6A58D8
:103AF000D358211D05B0BDE8F04018472320D1E779
:103B0000C02B0020143A0700EC4B07001B3A0700BB
:103B1000584C07006D32000038B50C6805464CB9AA
:103B2000006803F0CCFC04490246284601F085FDFC
:103B3000204638BD0720FCE7364A070038B50C6838
:103B4000054608464CB9286803F0BEFC0849024601
:103B5000284601F072FD002038BD064920F0D3F957
:103B600018B1286803F0B5FCF5E70720F4E700BFBB
:103B7000364A0700775D07000968006865F034BDC4
:103B800030B50C4687B005461149204620F0BBF9F8
:103B9000D8B102A9201DFEF7D6F8172807D10023B7
:103BA00060688DF810300822694620F08BF930B932
:103BB0009DF81030286823B102A903F0AFFC07B0CC
:103BC00030BD694603F0A5FCF9E70720F7E700BF21
:103BD000A84D0700C0E900127047437C5A0744BF54
:103BE000702301F8013B437C1B0744BF612301F8AC
:103BF000013B437CDA0644BF642301F8013B437C6C
:103C00009B0644BF632301F8013B437C5A0644BF33
:103C1000722301F8013B437CDB091CBF6F2301F8D1
:103C2000013B837CDB0744BF732301F8013B837CAA
:103C30009A0744BF6E2301F8013B837C5B0744BFB6
:103C4000442301F8013B00230B70704730B50C464C
:103C500087B0054601F0A4FC01A92046FFF7BDFF8F
:103C60009DF8043023B1094901AA284601F026FC39
:103C7000607C40F3010040B2FEF786F8A38A044955
:103C80000246284601F0D9FC07B030BD1A3A0700B9
:103C9000AE4D0700037D1B0744BF732301F8013BB2
:103CA000037D5A0744BF6E2301F8013B037D9B0649
:103CB00044BF612301F8013B00230B7070470000F3
:103CC00030B50C4687B0054601F06AFC01A92046D4
:103CD000FFF7E0FF9DF8043023B1094901AA284607
:103CE00001F0ECFB207D40F3010040B2FEF74CF800
:103CF000638A04490246284601F09FFC07B030BDA4
:103D00001A3A0700AE4D070038B50C4605464A681A
:103D1000114901F0D3FB227A04F10901284601F090
:103D2000EBFB0E49284601F0C9FB94F8072104F586
:103D30008471284601F0E0FB94F80631DB0703D5D7
:103D40000749284601F0BAFBB4F800220549284685
:103D5000BDE8384001F071BCB74D070074A50700FD
:103D6000BC4D0700CD3A070013B9006803F0B8BB9B
:103D70001720704713B9006803F0B7BB17207047CE
:103D800013B9006803F0B6BB17207047F0B5ADF566
:103D90001B7D00230E46624900930446154601F040
:103DA0004CFC4FF6FF77334606AA69462046FFF7DC
:103DB000DBFF50B9BD4203D0BDF82C30AB42F2D18D
:103DC00006A92046FFF742FFEDE75649204601F0DD
:103DD00034FC002300934FF6FF7733460CAA694664
:103DE0002046FFF7C7FF50B9BD4203D0BDF84230AF
:103DF000AB42F2D10CA92046FFF762FFEDE74A493A
:103E0000204601F01AFC002300934FF6FF7733465B
:103E100019AA69462046FFF7B3FF50B9BD4203D047
:103E2000BDF86432AB42F2D119A92046FFF76CFF0E
:103E3000EDE7002E5DD14FF6FF739D4259D13B490E
:103E40003B4D204601F0F9FB0096206801AA694627
:103E500003F055FB88B90DF10601204601F0A0FBE7
:103E60009DF805309DF80420002B14BF63232D23FB
:103E70002946204601F0E1FBE7E7206812A903F09C
:103E800043FB2C49204601F0D8FB9DF860309D078C
:103E900032D5BDF84A202849204601F00FFB9DF895
:103EA0006030D8072DD5BDF848202449204601F0C0
:103EB00005FB9DF86030190728D5BDF85E201E4926
:103EC000204601F0FBFA9DF860305A0723D59DF893
:103ED0004C200DF14D01204601F00EFB9DF86030A5
:103EE000DB0603D51649204601F0E8FA204601F02A
:103EF000F3FA0DF51B7DF0BD1249204601F0DEFA04
:103F0000CDE71049204601F0D9FAD2E70D49204605
:103F100001F0D4FAD7E70C49204601F0CFFADDE7EB
:103F2000BF4D0700C94D0700D14D0700DB4D07000D
:103F3000E54D0700EC4D0700B73A0700893A070046
:103F4000FE4D0700FB4D07001FA8070030B5C3B0AA
:103F5000FF2305468DF8073081B900680DF107038E
:103F600002AA03F0A7FA044628B99DF8072002A97F
:103F7000284601F0D3FA204643B030BD0C24FAE7BE
:103F80002DE9F04F85B000244FF6FF73DFF88480F1
:103F9000DFF88490ADF80E3006460D462746A2465F
:103FA0005FFA84FB05EB8B0355F82B20D2B1184642
:103FB000414601931FF0A7FF019B70B9494618467F
:103FC0001FF0A1FF60B955F82B000DF10E011FF095
:103FD0002AFF18B105B0BDE8F08F82460134DFE753
:103FE0000746FBE7BDF80E20BAF1000F00D14FB134
:103FF0004FF6FF739A420BD127B151463046FFF777
:10400000A5FFE7E730465146FFF7C0FE0020E1E795
:104010000720DFE7CA3907003C3F07002DE9FF41D1
:104020000B6805460C4693B9DFF878801A4F0026D6
:1040300058F8262039462846033601F0FEFA0C2EA1
:10404000F6D123682BBB232004B0BDE8F0811349CF
:1040500020461FF058FF0028E6D123680393104B39
:1040600000930C230DEB03000E49042203F0A1FE84
:1040700003460028E7D082685B68511005EB6200B8
:10408000D20744BF6A58D358211D04B0BDE8F0419F
:1040900018470020D8E700BF1B3A0700143A070072
:1040A000793B0000184E0700C0E90012027A6FF356
:1040B0000002027270470968002330B513600139AD
:1040C0004FF47A730A2511F8010FF0B1A0F1300412
:1040D000092C12D8B3F57A7F02BF106868431060CC
:1040E0000878A0F130041068B3F57A7F03FB040070
:1040F0001060E8D0B3FBF5F3E5E72E2804D1B3F563
:104100007A7F01D16423DEE7072030BD70B50E460B
:1041100092B004464E4930461FF0F5FE28B12068A3
:1041200003F017FA002012B070BD4A4930461FF064
:10413000EAFE054600B1043600213C2203A864F0E3
:104140003FFC454930461FF0DEFE68B1706803A9A8
:104150001FF0AEFE0028E6D1206803A903F056F850
:1041600008B90720DFE708363C4930461FF0CBFE90
:1041700018B101238DF84430043620680DF107038F
:1041800007AA3146FDF70CFE0028CCD19DF8073078
:104190003BB13349204601F091F907A9204601F0CF
:1041A000F5F9706800282ED1B068002831D1F36885
:1041B000002B35D1306900283BD173696BB102AA5D
:1041C00006F114012046FFF776FF0028ABD1029BD1
:1041D000B3F5803FC5D2ADF84030B369002BC0D1F4
:1041E000204B0B93204B206803A9CDE90C3403F03E
:1041F000ABF9002897D1237A002D65F300032372D1
:1042000008BF24208FE70EA91FF00DFE0028CBD099
:1042100089E70DF13A011FF006FE0028C7D082E7BA
:104220000FAA06F10C012046FFF745FF0028C1D078
:1042300079E70DF142011FF0E5FD00287FF473AF2F
:104240009DF84230B3FA83F35B098DF84330B4E74D
:104250004C38070041380700484E07004B4E070016
:104260004E4E0700A54200005143000037B54A8A70
:1042700008320C46054692B2084901F01FF9214662
:10428000284601F071F9238A0093A28AA37D04498C
:10429000284601F0D2F903B030BD00BF714E0700CF
:1042A000804E07000B4601461846FFF7DFBF0000AF
:1042B000024B186800B9FEE7FDF7D6BE580E002085
:1042C00037B50C464B880A881E49054601F0F6F8BA
:1042D000218899B1237B8BB9628891420ED38B1AC6
:1042E0004FF47A72534393FBF1F30A212846B3FB50
:1042F000F1F201FB1233144901F0E0F8628892B147
:104300006368608901904FF47A714B43B3FBF2F21A
:10431000B2FBF1F301FB132200920C4922899BB2FC
:10432000284601F0CBF8284601F0D6F8297A11F09A
:10433000010105D1284603B0BDE83040FFF7B8BF02
:1043400003B030BDA04E0700CD4E0700E64E07007B
:104350000B4601461846FFF7B3BF90F8A43223B1CD
:104360000B6823B9083003F018B90D2070470720F7
:1043700070470B68F7B50446CBBB90F8A432C3B3C3
:1043800090F8A932ABB104F0D9FF04F5C25008305F
:1043900028F0E2FC04F5BA50183028F01BFC04F5B4
:1043A000D1500C303CF0B0F904F5C65018302DF067
:1043B000F6F904F1080003F0F4F80027064684F843
:1043C000A77204F52B70019003F008F9019803F02F
:1043D00007F9054604F51E7003F0F0F884F8A4729E
:1043E0004EB9BD4208BF0546284603B0F0BD0725BB
:1043F000FAE70D25F8E73546F6E70B6810B50446F1
:104400005BB990F8A43253B1083003F0C8F818B97A
:1044100084F8A50284F8A60210BD0720FCE70D2051
:10442000FAE70B6833B990F8A4322BB100F51E708F
:1044300003F0C2B8072070470D2070472DE9FF41F7
:1044400090F8A43205460E46002B5ED000F580534E
:10445000D3F83C37002B5ED10F68002F57D04C6843
:10446000002C54D190F8A83243B390F8A9820846A2
:10447000B8F1000F13D01FF03FFD024605F5BA500A
:104480003946183029F0B8FF002842DA20F08000C1
:1044900010F5D24018BF012004B0BDE8F0811FF034
:1044A0002BFD03AA03460092CDF804803A4605F599
:1044B0002B7105F1080003F085F8EDE790F8A732BD
:1044C0004BBB00F53974C0F8D832C0F8DC4208465E
:1044D0001FF012FD40F62622904203D830461FF00E
:1044E0000BFD02463168C5F8E022204664F052F91F
:1044F000002205F5367105F1080003F048F80028A0
:10450000CAD1012385F8A732C6E70D20C4E70720EA
:10451000C2E72046C0E70520BEE70968006865F0ED
:1045200063B800002DE9F04790F8A4528AB0044621
:104530000E46002D40F0E2800B68002B42D1012393
:10454000A0F8A83240F6262540F6262204F5397157
:1045500004F52B7003F034F82022002102A864F047
:104560002FFA674B039394F8A832002B00F0BF801A
:10457000644B0593644B069304F10806634B079361
:104580002068029404F60A5302AA3146CDE90835A0
:1045900002F0F1FF054688B95D4B039320685D4B3F
:1045A000049302AA04F51E71029402F0FCFF054672
:1045B000002800F09F80304602F0F3FF28460AB042
:1045C000BDE8F087544930461FF09DFCA8B1A4F81F
:1045D000A85270680028B5D002A91FF0C3FC054698
:1045E0000028EBD1029DEB1D05EBD3056A1E40F6BA
:1045F00025239A42A8D90725E0E7484930461FF00D
:1046000082FC074618B10123A4F8A832E1E7444927
:1046100030461FF078FC0028EDD040F2011304F57D
:10462000C658A4F8A83208F1180804F5D15A04F0C5
:104630006BFE0AF10C0A404604F5BA592DF0AAF8AF
:1046400009F11809504604F5C25508353CF058F8F0
:10465000484627F0D5FF284628F014FB3A46314952
:10466000284627F0D8FF3946284627F0CDFF2E49A7
:10467000284627F0D9FF03221146284628F051F892
:1046800003221146284628F047F8E92227490097D7
:104690003B4650463CF03CFD024618B124492046BA
:1046A00000F0CBFF40F22D32224940462DF0FCFCB9
:1046B000024618B12049204600F0BFFF40F299227F
:1046C0001E4940462DF0F0FC024618B11C49204618
:1046D00000F0B3FF2946484628F0E0F902460028DA
:1046E0003FF477AF1749204600F0A7FF71E7164B5C
:1046F00004933FE7012384F8A4325FE718255DE7C0
:104700009D4E0000FD4E000045500000E5480000B1
:1047100091490000D1490000104F0700174F0700D2
:10472000204F070099960000EC5D0700244F07001A
:104730000D5007002E5007005B53070082530700FF
:104740001B56070042560700C14C000030B590F8D8
:10475000A43287B005460C46A3B1206801A91FF01A
:10476000A7FB58B9606805A91FF05DFB30B9A368C5
:1047700033B901A905F1080002F005FF07B030BD0B
:104780000720FBE70D20F9E730B590F8A43287B099
:1047900004460D46CBB1286801A91FF089FB80B9FA
:1047A000686805A91FF03FFB58B9AB685BB904F511
:1047B0001E74204602F000FF18B901A9204602F03D
:1047C000F9FE07B030BD0720FBE70D20F9E7C0E98F
:1047D00000120122A0F8A82200F580520021C0F8A2
:1047E000A41280F8AA1200F52B73C2F83C17C2F885
:1047F0004017C2F8481700F10801C2F85017C2F874
:10480000543770472DE9FF410B6805460C4693B9B4
:10481000DFF878801A4F002658F8262039462846B7
:10482000033600F00AFF1E2EF6D123682BBB23208F
:1048300004B0BDE8F081134920461FF064FB002856
:10484000E6D123680393104B00930C230DEB030078
:104850000E490A2203F0ADFA03460028E7D0826829
:104860005B68511005EB6200D20744BF6A58D35809
:10487000211D04B0BDE8F04118470020D8E700BF73
:104880001B3A0700143A07001B4500000C5E0700A6
:10489000042A96BF104B114A53F82220104910B534
:1048A000044600F0CAFE94F8A93223B104F5BA50C8
:1048B000183028F08CF904F58052002384F8A532D2
:1048C000A4F8A63204F52B70C2F83C37BDE81040BE
:1048D000C2F8403702F082BEF85D07006A5F070049
:1048E0006056070013B50446019102F049FE019A93
:1048F000214602B0BDE81040FFF7CABF38B51546E3
:1049000090F8A522044662B11D4900F0D7FD294662
:10491000204600F077FE20461A4900F08EFE012066
:1049200038BD00F10801196090F8A9320BB90020D8
:10493000F6E700F5C255083513460121284628F050
:10494000A5F9024618B11049204600F076FE04F59C
:1049500080530022D3F8281A284627F089FE04F550
:10496000D15204F5C6510C321831284627F062FEA8
:1049700002460028DBD00549204600F05EFED6E75F
:104980006856070098560700B1560700D956070029
:1049900037B50D460446019202F00AFE019B2A46F5
:1049A000214603B0BDE83040FFF7A8BF38B51D462B
:1049B0000123044680F8A532044900F07FFD294612
:1049C0002046BDE8384000F02FBE00BFFF5607006C
:1049D00037B50D460446019202F0EAFD019B2A46D6
:1049E000214603B0BDE83040FFF7E0BFF0B52E4FE1
:1049F00087B0044600F58055D5F840371BB900262E
:104A0000304607B0F0BD04F52B710846039102F063
:104A1000E3FD0028F3D0D5F840670399B6F5826F1F
:104A2000334628BF4FF4826398424FF0000216D9F4
:104A30009E4294BF00260126059294F8A92202B353
:104A400004F5BA501A463946183029F0D5FC00282A
:104A500007DDD5F84037059098421DD9FEE7164688
:104A6000EAE720F0800010F5D24F15D001260F495B
:104A7000204600F0E2FD0023C5F83C37C5F840377A
:104A8000BEE705AA0196009204F108003A4602F03A
:104A900099FD06460028EAD1D5F84037059A9B1AB9
:104AA000C5F84037A8E700BF195707002A5B070081
:104AB00000F5805370B5D3F84C27D3F848374FF43E
:104AC000FA515C0801FB02440849B4FBF3F40546C3
:104AD00000F0B3FD4FF47A732846B4FBF3F20449B7
:104AE00003FB1243BDE8704000F0A7BD3F5B070029
:104AF000815B0700F8B50E460546404930461FF079
:104B000002FAD8B13E49284600F0D8FC05F580539A
:104B1000D3F83C672EB13B49284600F08EFD0020BB
:104B2000F8BDD3F848473CB12846374900F085FD29
:104B30002846FFF7BDFFF2E73449EDE73449304638
:104B40001FF0E1F960B395F8A732002B54D105F5B9
:104B50008054D4F83C37002B4ED17068A8B94FF47C
:104B60009033C4F83C37B368D3B901F0BCF895F87A
:104B7000A872D4F83C67C4F84407C4F840678FB102
:104B80002846BDE8F840FFF731BF05F5B9511C31A3
:104B90001FF0E8F90028C3D1D4F83C37002BE2D14C
:104BA0000720BDE705F5397340F626226121184636
:104BB00063F006FF06F6252140F625229142AED984
:104BC00040F62623B6FBF3F203FB1266002E18BF55
:104BD000334605F5B951C4F83407C4F83077C4F842
:104BE00038373A46103105F1080002F0D0FC0028B1
:104BF00095D0C4F83C7793E7052091E79C5B0700CC
:104C0000A35B0700BA5B0700C25B0700CC5B070031
:104C1000D55B070038B5054605F5805401F063F80B
:104C2000D4F84437C01AD4F83C37C4F84807C4F85D
:104C30004C372846FFF73CFF0023C4F83C3738BD0B
:104C400070B590F8A8620446114606B1FEE700F57B
:104C5000805500F53673D5F83C2742B9994205D105
:104C600090F8A73203B9FEE780F8A72270BD9942F9
:104C700000D1FEE7D5F840378A68934200D2FEE7BC
:104C80009B1A40F625229342C5F840370FD940F6CB
:104C900026238B603246083002F079FC0028E5D0EC
:104CA0000649204600F0C9FCC5F83C67DEE7002B4A
:104CB000DCD1BDE87040FFF7ADBF00BF2A5B070045
:104CC00013B50446019102F05BFC019A214602B043
:104CD000BDE81040FFF7B4BF73B500F5BA551835FD
:104CE00011490446284627F0DFFC024618B10F4957
:104CF000204600F0A2FC0E220D49284627F0BCFCFD
:104D0000024618B10B49204600F097FC002604F536
:104D1000BA51094B094A00961031284627F07EFC0B
:104D200084F8AA6202B070BDD95B0700E35B07009C
:104D3000085C0700175C070019760000E5750000A5
:104D400038B590F8AA320546CBB900F5BA501830FC
:104D500027F072FD0124024638B90A49284600F0BE
:104D60006CFC85F8AA42204638BD20F0800313F57C
:104D7000D24FF8D00449284600F05FFCF3E7002446
:104D8000F1E700BF475C07005E5C0700F0B590F8F4
:104D9000A43287B004460F46002B5FD000680DF1A7
:104DA000030301AAFCF7FCFF054608BB9DF803308E
:104DB0003BB12B49204600F081FB01A9204600F0C1
:104DC000E5FB786805A91FF02EF8054680B9BB6899
:104DD000002B41D007F10805224928461FF093F81F
:104DE000064640B9204928461FF08DF820B907250E
:104DF000284607B0F0BD0126FB68002BF7D194F8D8
:104E0000A9326BB1002304F5C2501A461946083086
:104E100027F03CFF024618B11449204600F00DFC73
:104E2000324601A904F1080002F0AFFB0546002854
:104E3000DED1012384F8A532734084F8A63294F8B9
:104E4000A932002BD4D0002ED2D12046FFF744FF48
:104E50002046FFF775FFCBE70126D0E70D25C7E712
:104E6000775C0700A05C0700A55C0700B15607004F
:104E700010B50446084900F0E0FB94F8A93253B19C
:104E800094F8A6323BB92046FFF726FF2046BDE83E
:104E90001040FFF755BF10BDAA5C070007B5019091
:104EA00002F06EFB019903B05DF804EBFFF7E0BF81
:104EB00038B590F8A8320446154603B9FEE7114606
:104EC00000F52B7002F086FB94F8A93213B120464E
:104ED000FFF736FF04F58053D3F83C276AB1D3F8C7
:104EE000403723B12046BDE83840FFF77FBD25B9E4
:104EF0002046BDE83840FFF78DBE38BD37B50D46BA
:104F00000446019202F03CFB019B2A46214603B075
:104F1000BDE83040FFF7CCBF2DE9F0471F4690F8C1
:104F2000A532ADF5007D04460E461546CBB990F886
:104F3000A922012380F8A53280F8A6327AB994F824
:104F4000AA32DBB994F8A932002B4BD097B1334980
:104F500020460DF5007DBDE8F04700F06EBBFFF781
:104F6000BBFE94F8A932002BE9D02046FFF7E8FEFB
:104F70000028E4D00DF5007DBDE8F087002DE5D0D8
:104F800094F8A93283B304F5BA56DFF89880DFF8B5
:104F9000989018360DF10C0A4FF4FA7251463046CB
:104FA00029F016FE021E07DA12F5D24F0CD0494640
:104FB000204600F042FBEDE7CDF800A01346414645
:104FC000204600F03AFBE5E715492A46204600F066
:104FD00034FBBBE7454500D0FEE72946304602F0EA
:104FE000DAFAB3E7002DB1D003A9304602F0D1FAC6
:104FF000DFF838904FF00008039A002AEAD0D2E98F
:1050000001234946009220461A4600F016FB039BF6
:105010009A681B6803939044EEE700BF315D070078
:10502000FB5C0700DE5C0700C65C0700145D070040
:1050300010B400F108048C4200D0FEE75DF8044B88
:10504000FFF76ABFF7B50D4616461F46044602F045
:1050500097FA009733462A462146FFF7E9FF03B047
:10506000F0BD00F10C01006802F0B5BD13B500F110
:105070000C0104460068019102F09DFD40B9064A0A
:1050800001992068234602B0BDE8104002F08EBDB1
:10509000182002B010BD00BF1954000010B50C68F4
:1050A0000B4634B100F10801BDE81040184600F08D
:1050B0005BBB017A00F0D2FA204610BD0968006897
:1050C00064F092BA70B50C4686B005461349204686
:1050D0001EF019FFB0B104340026206801A91EF0AB
:1050E000E7FE68B9606805A91EF09DFE40B9A36897
:1050F00093B92868334601AA05F10C0102F070FD4E
:1051000006B070BD064920461EF0FDFE10B1043405
:105110000226E2E70126E0E70720F1E7845E0700C8
:10512000875E070030B587B004460DF103030068C1
:1051300001AA0D46FCF734FEB8B99DF803303BB127
:105140000C49204600F0BAF901A9204600F01EFAE9
:10515000686805A91EF067FE38B9AB683BB92068DE
:1051600001AA04F10C0102F040FD07B030BD072098
:10517000FBE700BF775C070010B50123C0E9001210
:1051800004460372342200210C3063F019FC2046DF
:1051900010BD73B5302305460C468DF807306126E7
:1051A000DCB101220DF10701284602F059F9A8B936
:1051B0009DF807305A2B07D07A2B0AD0392B0AD109
:1051C00041238DF8073001E08DF80760013CA4B25F
:1051D000E6E73023F5E70133F3E7204602B070BD80
:1051E00070B590B005460191322603AA0DF10A016F
:1051F00001A8ADF80A601EF07CFE044608B1242820
:105200000AD1BDF80A2003A9284602F029F908B1FD
:10521000044601E0002CE8D1204610B070BD00002B
:10522000F0B58DB00F4601238DF805300546037AA1
:105230008DF804302622002102A863F0C1FBBB6870
:10524000EBB128680DF1060306AA3946FCF7A8FD64
:105250000446002857D19DF806303BB12C4928461A
:1052600000F02CF906A9284600F090F978680DF1B5
:105270002A011EF0D8FD0446002844D108372868CA
:1052800001A902F085FC064600283BD0214938469A
:105290001EF039FED0B178680DF106011EF0C3FD95
:1052A000044678B9BDF806103046FFF772FF044691
:1052B00040B9286802AB324605F10C0102F09AFCB5
:1052C000044600B3304602F0C3F81CE012493846E9
:1052D0001EF019FE28B17968C1B13046FFF780FF92
:1052E000E5E70E4938461EF00EFE00B104373C6873
:1052F00064B138461EF000FE21460246304602F0F8
:10530000AFF8D4E7032420460DB0F0BD0724D9E759
:105310008A5E0700B05E07003C3F0700B35E0700EF
:105320002DE9FF410B6805460C4693B9DFF87880FC
:105330001A4F002658F8262039462846033600F032
:105340007CF9122EF6D123682BBB232004B0BDE8D4
:10535000F081134920461EF0D6FD0028E6D12368CF
:105360000393104B00930C230DEB03000E49062210
:1053700002F01FFD03460028E7D082685B685110E9
:1053800005EB6200D20744BF6A58D358211D04B010
:10539000BDE8F04118470020D8E700BF1B3A0700DE
:1053A000143A0700BD500000E05E0700F0B5044667
:1053B000ADF2E45D08460D46164602F04BF807468E
:1053C000284602F04BF811493A1A204600F076F8C8
:1053D00006F11001204600F0C7F8728C0C492046F7
:1053E00000F06CF8284602F039F801AA014640F2B4
:1053F000DB53284602F036F801AA0023135405496E
:10540000204600F01AF90DF2E45DF0BDB65E07002B
:10541000ED3A07001B3A0700FFF7C8BFC0E90012CA
:10542000704700232DE9F041137550EA010305464A
:105430000C4606D1302302F11306D3743046BDE882
:10544000F08102F11406284621460A22002361F069
:10545000C7FF303206F8012D0023284621460A22D4
:1054600061F0BEFFA8462746B8F10A0F77F10003A6
:1054700005460C46E7D2E1E737B504460722684601
:105480000D4603F021FC642142F2107363434FF692
:10549000FF70B3FBF0F36846B3FBF1F201FB12338C
:1054A000024903F039FC284603B030BD285F0700ED
:1054B000D0E9003018474068FFF7FABF0EB403B5D3
:1054C00003AA52F8041B0192FFF7F5FF02B05DF842
:1054D00004EB03B0704700000149FFF7EFBF00BFC6
:1054E000585307000A46024B0249FFF7E7BF00BFC7
:1054F000F9A10700505F0700F8B5074E07460C46B4
:105500008D18AC4206D014F8012B31463846FFF70F
:10551000D5FFF6E7F8BD00BF305F070010B50446C1
:10552000FFF7EAFF2046BDE81040FFF7D5BF0000B7
:1055300010B586B01946044610466A46FFF771FF5B
:10554000034902462046FFF7B9FF06B010BD00BF71
:105550001B3A070010B50446FFF7EAFF2046BDE8F6
:105560001040FFF7B9BF000010B58AB004462822EA
:105570000846694601F094FE03496A462046FFF753
:105580009DFF0AB010BD00BF1B3A070010B50446CE
:10559000FFF7EAFF2046BDE81040FFF79DBF00007F
:1055A00010B58CB004462D220846694601F07CFEF9
:1055B00003496A462046FFF781FF0CB010BD00BFCB
:1055C0001B3A070013B5CC884B880A8864BAA4B28A
:1055D0000194898849BA89B25BBA52BA00919BB2E8
:1055E000024992B2FFF76AFF02B010BD355F0700B3
:1055F00010B50446FFF7E6FF2046BDE81040FFF770
:105600006BBF000010B58CB00446302208466946D6
:1056100001F048FE03496A462046FFF74FFF0CB0F1
:1056200010BD00BF1B3A070010B50446FFF7EAFFA4
:105630002046BDE81040FFF74FBF0EB417B505AACE
:10564000044652F8041B0192FFF735FF2046FFF78E
:1056500043FF03B0BDE8104003B07047034A044B5A
:10566000002914BF11461946FFF7E7BF465F070040
:10567000AB4007000CB473B506AD044655F8046B97
:10568000FFF730FF2A46314620460195FFF713FF0A
:105690002046FFF721FF02B0BDE8704002B070471E
:1056A0002DE9F341DFF83C800D4F14468E18B442CB
:1056B0000FD041460190FFF701FF14F8015B0198FC
:1056C000002DF4D03946013D0190EDB2FFF7F6FE12
:1056D000F5E7044902B0BDE8F041FFF7AEBF00BFF7
:1056E0001FA8070037A707002DE9F04FDFF87090DB
:1056F000DFF870B085B004460E461F46154603F12C
:10570000FF3802EB810A55451CD055F8043B18F8C8
:10571000012F03921846029365F012FA039A029B36
:105720000230904206D8C2F1010259462046FFF7E6
:10573000C5FEE8E700934946134620465242FFF76C
:10574000BDFEE0E720460549FFF777FF3A463146C0
:10575000204605B0BDE8F04FFFF7A2BF123A0700A0
:10576000545F07004E5F070070B50D4609490646B5
:105770001EF0C9FB044618B101232B70002070BD38
:10578000054930461EF0BFFB08B12C70F6E7232018
:10579000F5E700BF5B5F0700625F070073B5064671
:1057A00008460DF107011546FFF7DEFF044630B944
:1057B0009DF807103068A847204602B070BD23242A
:1057C000FAE737B5054608460DF107011446FFF71D
:1057D000CBFF28B99DF807102868A04703B030BD5B
:1057E0002320FBE770B50E68154604461A461EB125
:1057F000BDE87040FFF7D2BF0068A84701462046C9
:10580000FFF72CFF304670BD70B50E681546044694
:105810001A461EB1BDE87040FFF7D3BF0068A84725
:1058200001462046FFF71AFF304670BD00F14020C8
:1058300000F50030002382B0036003680193019BF0
:1058400002B0704708B5094B020103EB0010084B8A
:105850004168C3F84813C168C3F808130089FFF70B
:10586000E5FF044B0021995408BD00BF745F070099
:1058700000400240D02C002037B521490122D1E858
:105880004F3FDBB28DF807309DF807306BB1BFF3A7
:105890002F8F1C4BD3F804211B4B12B91A68D20767
:1058A0002CD518680230400826E0C1E8432F002BB1
:1058B000E5D1144B0222C3F80823BFF35F8FD3F85E
:1058C0000431114A4BB1136801331360BFF35F8F8A
:1058D0004FF48270FFF7AAFF01231068094C0225DC
:1058E00001304008C4F80453BFF35F8F00240C70EC
:1058F00013B113680133136003B030BD1868D2E7E9
:10590000C02C002000400240C42C00202DE9F041B2
:1059100006460C46FFF7B0FF0546BFF35F8FDFF882
:105920002080D8F80475BFF35F8FFFF7A5FF3060C4
:10593000854218BFD8F804752760BDE8F08100BF24
:105940000040024013B5044601A96846FFF7DEFF98
:10595000019843F6095240F2FF130021E0FB0231A7
:10596000580A009A064B40EAC150490AE2FB03017B
:1059700024B94FF47A72002361F032FD02B010BDF9
:105980000080841EF8B5194D05EB0013044606018E
:105990001889FFF74BFF0F462046FFF7D3FF3FB9AB
:1059A000134B3344D3E90223904271EB03031CD31E
:1059B0003544104B6A68C3F84823022CEA68C3F8E0
:1059C00008230AD0032C0CD0094A012393550A4A14
:1059D0001370BDE8F84000F0BABFBDE8F84043F0EE
:1059E000FDBDBDE8F84043F019B9F8BD745F07008C
:1059F000D02C002000400240BF2C00202DE9F041B7
:105A00003D4D3E4E05EB021C1401DCF80C70C6F84F
:105A10000873DCF80470C6F84473D3E90067B04239
:105A20005DD9831B002B5ADA013F0026431846EB51
:105A300006003844F31832B94FF47A7101FB00F6CE
:105A4000A3FB013030442E495E0B46EAC046470BAB
:105A5000A6FB016E01FB07EE360F46EA0E164FEA73
:105A60001E7E43F609514FEA4E2747EAD6574FEAC2
:105A7000462CA6FB01689E1B01FB0E8E60EB0E0EF2
:105A8000204B40F23140704303FB0E00A6FB036342
:105A9000013E184447F6FF7340EB0300C00B10EBC8
:105AA0000C0047F1000720F07F46A0FB010301FB3B
:105AB000073140F2FF13C01841F10001B2B1400AB2
:105AC00040EAC150490A104B0C4A2344C3E9020181
:105AD0002B5903F5A87342F82360BDE8F081B0426A
